:020000041000EA
:1000000000B5324B212058609868022188439860DF
:10001000D860186158612E4B002199600221596106
:100020000121F02299502B49196001219960352056
:1000300000F044F80222904214D00621196600F024
:1000400034F8196E01211966002018661A6600F04E
:100050002CF8196E196E196E052000F02FF8012189
:100060000842F9D1002199601B49196000215960AB
:100070001A491B48016001219960EB211966A021F2
:10008000196600F012F800219960164914480160C1
:100090000121996001BC002800D000471248134993
:1000A000086003C880F30888084703B5996A0420EC
:1000B0000142FBD001200142F8D103BD02B5186610
:1000C0001866FFF7F2FF186E186E02BD00000240BE
:1000D000000000180000070000035F00212200005C
:1000E000F4000018222000A00001001008ED00E03C
:1000F00000000000000000000000000074B24E7A12
:1001000000200420F7010010C3010010C5010010F9
:10011000C1010010C1010010C1010010C101001097
:10012000C1010010C1010010C1010010C701001081
:10013000C1010010C1010010C9010010CB01001065
:10014000CD010010CD010010CD010010CD01001037
:10015000CD010010CD010010CD010010CD01001027
:10016000CD010010CD010010CD010010CD01001017
:10017000CD010010CD010010CD010010CD01001007
:10018000CD010010CD010010CD010010CD010010F7
:10019000CD010010CD010010CD010010CD010010E7
:1001A000CD010010CD010010CD010010CD010010D7
:1001B000CD010010CD010010CD010010CD010010C7
:1001C00000BE00BE00BE00BE00BE00BEEFF3058054
:1001D000103800BEF2EB8871A4CF0510C8CF05100F
:1001E0003402001090A31AE700201F49086006C8D7
:1001F00081F3088810471D48006800282FD10DA4FE
:100200000ECC002902D000F012F8F9E71849194A7B
:10021000002000E001C19142FCD1174988471749ED
:1002200088471749884700BEFDE701C901C29A42C5
:10023000FBD37047C8CF0510C00000201822002053
:1002400020F10510000004200000042020F105101A
:10025000001004200010042000000000704709482E
:1002600003F07AFB0047000008ED00E0000000D03A
:1002700018220020383C0020F11F00103503001028
:10028000212100105756000006005250ABB36053B6
:1002900048A6041006005250861C030258A60410FB
:1002A000060052505422A29D68A604100500525028
:1002B000DE65F46820F10510F8B5C0460648074928
:1002C000091A8B10C90FC91810B5491003D0044B77
:1002D000002B00D0984710BD1822002018220020C3
:1002E00000000000054B10B5002B03D00449054861
:1002F00000E000BFFFF7E2FF10BDC04600000000B5
:10030000FC3A002050A3041010B501F0EFF8FA22D7
:100310000023920003F0B8FB054B9A68821AFA2A70
:1003200005D901211A7918604A401A71986010BDE8
:10033000D8390020F0B5C646184C00B5200004F0AE
:1003400063FE04F01BFD164B01220821062000F07D
:100350007DF92000134904F0F3FF2000124905F055
:100360001BF82000114905F045F8114B114D984636
:10037000114F124E2B79002B0BD04146200004F078
:10038000DFFF3900200005F007F83100200005F0FC
:1003900031F8200005F060F8ECE7C046E4390020B1
:1003A0000903001050A304105CA3041064A30410FC
:1003B00070A30410D83900207CA3041084A3041077
:1003C00010B50C4C86B0200005F07CF80423049393
:1003D00010330393053B0293013B0193093B0093C8
:1003E000032202210594013B034804F0F5FD06B009
:1003F00010BDC046D8390020E4390020D0231B06A8
:100400001B68824A99005258F0B5574692465A1EC8
:1004100093413022DE464E4645465B421A40130069
:100420007B4AE0B5944683B063440193794B884698
:1004300000260F279B46F2081300019908339B0002
:100440005C5835000836002C22D0012399465346CB
:10045000002B26D039002140274213D05B4642466C
:100460009A584B46AB401A420CD1072208002A404A
:10047000920090400200EB0867483C339B001A5002
:100480002800D04724090135002C01D0B542E1D322
:10049000202ED0D103B0F0BCBB46B246A946A04640
:1004A000F0BD39002140274209D00133AB409C46C2
:1004B00043465848C0586346184200D17EE023099D
:1004C000E6D00F22110019401A420FD06B1C0E3AD1
:1004D0009A40944642464F4880586246104205D1A1
:1004E000DB084D4A3C3309019B009950230ACFD0C9
:1004F0000F22110019401A420FD0AB1C0E3A9A403D
:1005000094464246434880586246104205D1DB0873
:10051000414A3C3309029B009950230BB8D00F226B
:10052000110019401A4238D1230CB1D00F2211000A
:1005300019401A4247D1230DAAD00F2211001940A9
:100540001A4251D1230EA3D00F22110019401A4292
:100550000FD0AB1D0E3A9A40944642462D48805823
:100560006246104205D1DB082B4A3C3309069B004A
:100570009950240F0735002C00D189E7012341460B
:10058000AB40244A52581A4200D081E7ED08224A73
:100590003C352407AD00AC507AE7EB1C0E3A9A408C
:1005A000944642461B48805862461042BCD1DB0844
:1005B000194A3C3309039B009950B5E7164B3C326E
:1005C0009200D1507BE72B1D0E3A9A40944642464A
:1005D0001048805862461042ADD1DB080E4A3C33C9
:1005E00009049B009950A6E76B1D0E3A9A40944669
:1005F00042460848805862461042A3D1DB08064AAA
:100600003C3309059B0099509CE7C0467039002097
:1006100000410140283B002000400140094A10B53C
:1006200094464024830063441A68C00062408034CA
:1006300014408022520113431C60034B9C466044CB
:10064000416010BD04C0014000400140F8B51D00EC
:10065000D0231B061C680600604244412F206442E0
:1006600084432748F70884460720304080008140B3
:100670003800244E3C3064448000BF008151E419AE
:10068000002A11D080229201224311601C681E4E64
:10069000A400A359002B15D0002D25D0A551012170
:1006A0000D2000F0ADF8F8BDC02292012243116088
:1006B0001C68154EA400A359002B0CD0002D18D097
:1006C000A551F0E7002DEAD000220D200F49A551D9
:1006D00000F0DAF8E3E7002DE5D000220D200B4909
:1006E000A55100F0D1F8DEE70D20084900F0BCF973
:1006F000D4E70D20054900F0B7F9A551D3E7C0466E
:10070000304101400040014070390020FD030010DD
:100710004021F0B5D6464F46464688468031D02522
:100720008C46C0B5BB398027002301248A46104A75
:100730002D067F01044211D0210099404646A9624E
:10074000A96111687140664631403E001643316030
:10075000084ED900B146564649440E600133400860
:1007600004321E2BE6D1E0BCBA46B146A846F0BD25
:1007700004C0014004400140024B18688007C00FCC
:100780007047C04600C0064070B5EFF3108C72B6DB
:100790000D4D2B68002BFCD0BFF35F8F0724CB08D7
:1007A000C618C05C01230C40A3401C000440034257
:1007B00007D118433070BFF35F8F2C608CF3108823
:1007C00070BD100001F0CCFC2C0100D00021044BC6
:1007D000044ABFF35F8F02C39342FAD17047C04609
:1007E000000100D0800100D0044A1078431CDBB225
:1007F000172B00D9102313707047C046C410002077
:1008000001238340002904D0034A1360034A136084
:100810007047034A1360FBE780E200E000E100E07C
:1008200080E100E0024B10309B688000C0587047A8
:1008300000ED00E070B50D00EFF3108672B60F4AC0
:100840001368002BFCD0BFF35F8F0D4B10309B68FB
:1008500084001B590B4A934203D09D4201D001F002
:1008600097FC074B9B681D51BFF35F8FBFF35F8FF2
:100870000022024B1A6086F3108870BD240100D05C
:1008800000ED00E0CD010010F0B54E464546DE46D5
:100890005746E0B583B0060000919046EFF3108B09
:1008A00072B6654A1368002BFCD0BFF35F8F00253A
:1008B000624B5D579A46002D00DA79E052466B0094
:1008C0005F4C5F19BF000193E31999469B7910367D
:1008D00013705C4BB6009B6899590B1B2F2B33D9B7
:1008E000594B994200D07CE0019B02379C46574B04
:1008F0006544AD006353564BE719043BDB1B554A77
:100900001B055B0D651913436B80534B0121AB80B5
:10091000FF23AB714346EB71009BAB604B460B432F
:100920001900484B9B689951BFF35F8FBFF35F8FEE
:100930000022414B1A608BF3108803B0F0BCBB4619
:10094000B246A946A046F0BD01200A008243D379F1
:10095000434549D9BC464746884607E05800C01879
:1009600080002018C179B94228D902000623D35645
:10097000002BF3DA9A46131D9C464146B846374F82
:10098000484663460438C01A0005324B400D1843F0
:10099000019B908095715A1953469200A418A37137
:1009A00043462F4AE371009B2260A780A360B8E70B
:1009B00001F0EEFB002553465D577FE79A4641461E
:1009C000131DB84667469C469088043740050015BD
:1009D000E7196044C01BE0270005400D3F020743B4
:1009E000CEE701F0D5FB7FE713001E491B1B5B41DF
:1009F0005943090D154BBD1CE353154B6519043BB9
:100A00005B1B1B05134D5B0D2B43AC464D466B80AA
:100A100065460437131FE719DB1B1B055B0D1D43E0
:100A20004B4699714146D97100999D80996049461C
:100A30000B4B0143136074E7240100D0333C0020CA
:100A4000C810002000ED00E0CD01001000A1FFFF64
:100A5000F810002000E0FFFF01BDFFFF01BD000016
:100A600001488047AAAA0000F0B5DE4657464E4628
:100A70004546E0B50C0083B0EFF3108872B65D4ACE
:100A80001368002BFCD0BFF35F8F5B4B5B499A6808
:100A9000030010339F00D5598D4239D0A5424AD06A
:100AA000574EAA1B2F2A33D80122924682409146E4
:100AB0004846544A1268104001904846524A106015
:100AC000BFF35F8FEFF305829346002A35D0934240
:100AD00001D001F05DFB2A0053469A43906884429E
:100AE00008D175E04B005B189B00F3189868A04292
:100AF00034D01A00062151560029F3DA844253D02B
:100B0000019B002B26D04A46404B1A603D4B1A6091
:100B1000394B9B68DD51BFF35F8FBFF35F8F0022BE
:100B2000344B1A6088F3108803B0F0BCBB46B24661
:100B3000A946A046F0BD0D00EAE72A0053469A43B5
:100B400090688442D6D1062010561300002809DA96
:100B50000D0031E04A462C4B1A60D9E706201856A2
:100B6000002822DB42001118890074188A46A16807
:100B70009960E179D971062161569971002925DBC7
:100B8000A488F11A6405241554440919E0240905C0
:100B9000490D24022143998013181D4A9B001178A6
:100BA000F31899711070ABE713005946002914D15E
:100BB000FF3191711749918015490A789A71164A47
:100BC0009B1B5B415A43120D0A7099E71349E2E7F8
:100BD0000620105613000028C4DA114A1149D21A0F
:100BE000083A5002400D014399800F4952080A43C8
:100BF000DA8085E7240100D000ED00E0CD0100108F
:100C0000C810002000E100E080E100E080E200E0A8
:100C1000333C002001BDFFFFAAAA000001BD000077
:100C20000211002000F0FFFF00F8FFFF70B5EFF3A6
:100C3000058101240443EFF3108C72B6214A136836
:100C4000002BFCD0BFF35F8F1F4B05001F4AED1A2E
:100C50006D416A43120D1E4D8900AE6852B276583E
:100C6000A6421CD00621595691421CD01221595639
:100C7000914222D01E215956914220D02A21595604
:100C80000324914210D0134B19781A708171BFF36D
:100C90005F8F00220B4B1A608CF3108870BDAB681D
:100CA0000D4C5C50EFE700246100091989005B18C6
:100CB000FF21997109499980E5E70124F4E70224AD
:100CC000F2E7C046240100D0C8100020AAAA000004
:100CD00000ED00E0333C0020CD01001001BDFFFF1E
:100CE000054B064A1360064A136053609360D36055
:100CF00013615361936170478080808000E400E05D
:100D000004E400E0024B9C466144890001607047A6
:100D10004000003410B50400FFF766FD010020001C
:100D2000FFF7F0FFFF232371BFF35F8F10BDC046B5
:100D300010B50400FFF758FD01002000FFF7E2FFA7
:100D4000FF23A380BFF35F8F10BDC04683680B48AD
:100D500010B58446614462441201090159189B1878
:100D60005C684A680120944201D802D00020C0B2D9
:100D700010BD1A680B689A42F9D8F7E7FFFFFF0F1A
:100D80000A4B1968EFF3108072B60A68002AFCD08B
:100D9000BFF35F8F1B68BFF35F8F00221A6080F381
:100DA000108840BF002000217047C046143C00203E
:100DB000F8B5574645464E46DE46E0B598460CAB7C
:100DC0001C780DAB1B78070091469A460568002CED
:100DD0005AD1AC7B002C3BD0660029683619033E03
:100DE00089194B78AB73002B00D1EB7300238B7008
:100DF0004B700B702B4BE218BB6812019B184A46D4
:100E00001A6042465A600A9A9A600B9ADA60002386
:100E10008B704B700B706B7B9B46002B27D0220096
:100E20006B685946A86898475B465B005B442A6834
:100E3000033B002812D058469619B070D118D35CE5
:100E4000002B00D073705B460C706B735C450FD049
:100E5000F0BCBB46B246A946A046F8BDD3189C706C
:100E60009119925D002A00D05A705B460B706C732A
:100E70004A464346387D00F0CDFB051E0AD10E9B45
:100E8000002BE5D01D70E3E7660029683619033EA4
:100E90008919AFE75346002BF1D12100386800F0E3
:100EA000D1FDECE7FFFFFF0FF0B5DE4657464E469B
:100EB00045460023E0B58BB00893684B8200D458B8
:100EC00000239B46099000F011FB02000B006068B4
:100ED000EFF3108A72B6564601680029FCD0B2467C
:100EE000BFF35F8F21684F7B8C46002F2ED0A56803
:100EF0005B49A94679180901894449460868496847
:100F000005000E00AD1A9E41002E5FDD02000B00B1
:100F1000099800F07FFB00230022994600230692E7
:100F20000793002398466368BFF35F8F5A461A60A1
:100F30008AF310884346002B12D10028C3D10BB08E
:100F4000F0BCBB46B246A946A046F0BD0023002235
:100F50009946002306920793002300209846E2E773
:100F6000089B494618023843C047626805000E00D6
:100F7000EFF3108A72B61368002BFCD0BFF35F8FBB
:100F8000002E41DB2B00334302D02369002B56D1C6
:100F90002368D97B002905D01A68480041185218E7
:100FA000033A57709A7B002A00D19F73DF73E2687F
:100FB000013FD35D0133D3555B4623616368BFF3C3
:100FC0005F8F5A461A608AF310887CE7002E02D1A0
:100FD000002D00D09AE70021604600F0B1FC4B469E
:100FE0001A685B68069207934B469B6898464B4687
:100FF000DB689946E368DB19013B1B7808931B0209
:101000000343236100208EE72369002BC0D0069A9A
:10101000079B8021521BB34109068B4202D3012258
:10102000104B524200210491013103914946019134
:101030004146200002970091FFF7BAFEBCE700F09E
:1010400055FA2A00330012184B41802109068B42C1
:10105000E8D30122034B5242E4E7C046143B002090
:10106000FFFFFF0FFFFFFF7F10B5144C6368002BDD
:1010700004D00A211248FFF745FE10BD2300114A93
:101080001021206800F078FB032000F023FA0320F1
:1010900000F028FB03200C4900F076FAFFF7A4FBD0
:1010A0000A4B9C4603232375D0231B061B68604410
:1010B0006375074B80006060DC60DAE71011002088
:1010C000143C00204D0D0010A90E0010400000340B
:1010D000143B0020F0B557464E464546DE46E0B587
:1010E00085B0019310AB1B780600039300239A464A
:1010F000984600927268EFF3108B72B61368002B5B
:10110000FCD0BFF35F8F3568AC7B002C00D16EE064
:1011100067002B683F19033FDB195A78AA73002A2E
:1011200000D1EA73484AA118B26809015218009820
:101130000199106051600E9991600F99D1604246FB
:101140009A705A701A706B7B9946002B00D16BE035
:1011500022006B684946A86898474B465B004B44A1
:101160002A68033B002856D04846D719B870D118D2
:10117000D35C002B00D07B704B460C706B734C45DE
:1011800053D0F3681B19013B18787368BFF35F8F66
:1011900042461A608BF310885346002B08D1000298
:1011A000204305B0F0BCBB46B246A946A046F0BD00
:1011B000039B002B46D00E9B00200F9998470300FD
:1011C0000B433FD004000D1E1ADA009A019B121B3C
:1011D000AB410092019380221206934204D3012373
:1011E0001A4C5B4200930194039B9A4682E7736812
:1011F000BFF35F8F1C608BF3108801204042D0E763
:1012000000F074F9802200196941120600900191E2
:101210009142E9D3E3E7D3189C70D119D25D002A3B
:1012200000D05A704B460B706C73307D009A019B56
:1012300000F0F0F982460028A3D02100306800F0C9
:1012400001FC9EE70020ACE7FFFFFF0FFFFFFF7FE1
:10125000F0B504000D0006267642F717C64636198B
:101260006F4100B584B08F4214D811D000F03EF920
:1012700032003B00121A8B41002B15DC002B3ED0B4
:101280002000290000F070F904B080BCB846F0BD21
:101290008642EBD90026002700F028F932003B00F7
:1012A000121A8B41002BE9DD002302930193154BA9
:1012B0003200009314483B00FFF70CFF0028DFDBEF
:1012C00000239846BC46114A114F7B6A9C4504D8BE
:1012D000B96AB142D4D29C45D2D11168EFF31080E3
:1012E00072B60B68002BFCD0BFF35F8F1368BFF39F
:1012F0005F8F4146196080F3108820BFE5E7002A20
:10130000BED0D1E7810D001010110020143C002048
:101310000040054070B5060000F0E8F8FA2204002D
:101320000D00002330000021920003F05DFA8023BD
:10133000001969411B06994202D30120024940422B
:10134000FFF786FF70BDC046FFFFFF7FF0B5EFF3EC
:101350000583CE46474680B505000C0085B0002BBE
:1013600012D02A4A0020536AA34203D3926A013062
:10137000AA4204D305B0C0BCB946B046F0BD1B1BA1
:101380005A1E9341D8B2F5E7214E02930193214BA7
:101390000200009330000B00FFF79CFE031EE0DD0F
:1013A00020BF7168EFF3108772B60A68002AFCD07C
:1013B000BFF35F8FDAB29446FF2230681A40417B58
:1013C00061450FD0016889465100884649469044DE
:1013D000414403398978002904D13269934209D103
:1013E000316107E0F1681B0A8A18013A1278DBB212
:1013F0009A4207D07368BFF35F8F00221A6087F3A9
:101400001088AEE7614600F01DFBF3E700400540A1
:1014100010110020810D0010F0B5EFF30582D646C3
:101420004F4646461000C0B51038EFF3108872B62C
:10143000214C2368002BFCD0BFF35F8F01231900E0
:1014400081401E4D1F006963AA461D4D29601D4D38
:101450002E78AC463500C5402F402B4215D0534660
:101460005F6A194B8500EB589F4218D36246174BB1
:101470008E43EB581670BFF35F8F0022226088F313
:101480001088002B06D0984704E0BFF35F8F2760D9
:1014900088F31088E0BCBA46B146A846F0BD0C4BB4
:1014A00092009C46624413681360BFF35F8F002371
:1014B000236088F31088EDE7280100D00040054044
:1014C0003C700540343C0020183C0020603900206E
:1014D000D03F054010B5034B01001800024AFFF74A
:1014E00053F910BD313C002098A30410034B596AF6
:1014F0000A00986A596A8A42FAD17047004005404A
:1015000070B504000D00174A536A1900966A536AB1
:101510008B42FAD13000190024184D41AB4216D845
:1015200013D0104B2A005B6A9D4203D90D494B6AC8
:101530009342FCD3934207D10A4A02E0516A99428E
:1015400002D1916AA142F9D370BDA642E9D9054BF7
:101550005B6A1C005A1CEFD0012201246442E5178B
:101560005242E3E700400540064A536A9942FCD8DC
:1015700007D1044B02E05A6A914202D19A6A824230
:10158000F9D370470040054070B504000D00EFF33B
:10159000108672B61A4A1368002BFCD0BFF35F8F17
:1015A000002D1BD02000FFF73DF9164981420AD0DB
:1015B0002000FFF73FF901212000FFF721F9012367
:1015C000A340114A1360114BA400E550BFF35F8F95
:1015D00000220B4B1A6086F3108870BD0121A140D8
:1015E0000A4BA200D5500A4B20001A788A430549BD
:1015F0001A70FFF739FA00212000FFF701F9E5E73B
:10160000280100D01914001038600540603900200E
:10161000343C0020F0B54F46D6464646C0B50700DC
:101620002B4C616A0D00A66A616AA942FAD18B420D
:1016300008D805D00120E0BCBA46B146A846F0BDA6
:10164000B242F7D9EFF3108A72B622480168002936
:10165000FCD0BFF35F8F0125BD401F491C4C88465D
:10166000097889462943C9B28C46414660460870CC
:10167000391D890065630A511849B8004350216A31
:101680000020294219D0616A0800A66A616A814275
:10169000FAD18B4219D801D1B24216D8CC450BD021
:1016A0000B4B1F221D625D6301233A4093400C4A9D
:1016B000136043464A461A700120BFF35F8F002231
:1016C000044B1A608AF31088B5E70020F5E7C0469E
:1016D00000400540280100D0343C0020183C002088
:1016E00080E200E0EFF3108C72B60A490B68002B21
:1016F000FCD0BFF35F8F01238340074A0748136282
:1017000002789A430270BFF35F8F00230B608CF363
:1017100010887047280100D000400540343C00206C
:1017200070B506000D00140000291DD0002A12D04B
:1017300073688068984762006B0012195B19316802
:10174000033A033B002808D08A189570C818CB5C70
:10175000002B0BD10470280070BDCB189C7088182A
:101760008A5C002A05D105702000F5E753700470EB
:10177000F1E75A700570F7E710B583600023CCB22B
:1017800043730133426004738373C4730068421C63
:10179000012C05D90133DBB2137003329C42F9D11D
:1017A000FF230B405A00D318C0180023033843709E
:1017B00010BDC04670B505000C1E07D0630001685F
:1017C0001B19033BCB185A78002A01D1200070BDA9
:1017D000500080180338091800204E784870210006
:1017E00058702800FFF79CFF310004002800FFF725
:1017F000E1FF0600002C20D00028E7D032002100B5
:101800006B68A86898477200630092191B192968D1
:10181000033A033B002808D08A189470C818CB5CA0
:10182000002B00D053700670D0E7CB189E7088183C
:101830008A5C002A00D05A7004703400C6E7C046A3
:10184000F0B557464546DE464E46E0B50D006F0002
:1018500001687F19033F0400C85D83B00192CA1973
:10186000002850D043001B18033BCB185E78B446C9
:10187000002E1AD1019E002E42D0E67B002E04D00D
:1018800073009B19CB18033B5D70A37B002B00D129
:10189000A573E57300282FD10023537003B0F0BC6B
:1018A000BB46B246A946A046F0BD72006244033A68
:1018B0008A18517888460021517089465970320043
:1018C00001002000FFF72CFF43468246002B07D083
:1018D0005B0021684344033BCB185A78002A16D199
:1018E000424651462000FFF71BFF2168019BCA19A1
:1018F000002BC2D10028CFD043001B18033BCB18CC
:1019000000219970C8E7019B002BB6D1C4E75000B5
:10191000801803380918487883464846487058703C
:1019200041462000FFF7FCFE594680462000FFF7A5
:1019300041FF414602002000FFF7F2FE8046CFE75C
:10194000F0B557464546DE464E46E0B583B00191B8
:10195000457B04006F0000687F19033FC15DC21919
:10196000002952D04B005B18033BC3185E78B44685
:10197000002E1CD1019E002E44D0E67B002E04D008
:1019800073009B19C318033B5D70A37B002B00D130
:10199000A573E573002931D10023280053706173CA
:1019A00003B0F0BCBB46B246A946A046F0BD7200EB
:1019B0006244033A82185078804600205070814675
:1019C000587032002000FFF7ABFE43468246002BE2
:1019D00007D05B0021684344033BCB185A78002AA8
:1019E00017D1424651462000FFF79AFE019B0100A5
:1019F0002068C219002BC0D10029CDD04B005B1844
:101A0000033BC31800209870C6E7019B002BB4D19C
:101A1000C2E75000801803380918487883464846C2
:101A20004870587041462000FFF77AFE59468046BC
:101A30002000FFF7BFFE414602002000FFF770FEC6
:101A40008046CEE770B5050000292CD0437B8B4241
:101A50002ED04C0000686418033C0419A278002AB8
:101A600021D053009B18033BC25CC6188A4202D1A6
:101A70001BE0002A08D053009B18033BC3185A7878
:101A80008A42F6D162785A70002301222800A3709E
:101A90006370FFF7D5FE697B02002800FFF740FE68
:101AA0006873012000E0002070BD63783370EBE7BD
:101AB00001221900FFF7C4FEF2E7C046F8B5CE4692
:101AC0004746040080B506200E0000F01FFA051EF0
:101AD00051D0524B5249E21853425A418023DB0302
:101AE0009C4692054F4B62441A604F4B1A6010009F
:101AF0008B689843FBD1494B4C4AE31859424B4100
:101B000080215B0049000620995200F0FFF9310066
:101B1000C00001F07BFFC30932D140220121904671
:101B20006162A362256BEB0736D427008026E36A47
:101B300000232C3776013E4333600620256300F0F6
:101B4000E5F94146800001F061FF236B05009846EE
:101B5000DB073BD46023E26A5A400E331340336004
:101B600043462363802310229B013B431A60304B82
:101B700023630323A3642800C0BCB946B046F8BD64
:101B80002C4A93423FD900232B492C4A6162A3621D
:101B9000256B9046EB07C8D52200C02330329B014D
:101BA0001343234A06201A60666AA36AB601F61830
:101BB00000F0ACF9224901F029FFB6020100300023
:101BC00001F024FF0021FFF79BFCAEE72200C023B9
:101BD00030329B011343164A06201A60636AA26AD8
:101BE0009B019946914400F091F94B4614499B02A0
:101BF000994601F00BFF0100484601F007FF002164
:101C0000FFF77EFCA6E77F22990188460240013259
:101C1000520819009044130082E7C0460080FCBFC0
:101C200000C0004000E0004000F00040283C0020E0
:101C300001030000FEFF0000FFFF0000C0FF3F00A7
:101C40004E0E000010B50C2082B000F0B5F9FEF782
:101C500093FD002810D08B4B8B488B498B4A186022
:101C600059609860D960186159619861D9611862AA
:101C700059625A6202B010BD854CA06700F0A4F909
:101C80000122844B1A60636C012BFCD10322824B2E
:101C90001A607F4A936B012BFCD1013301217F4AEB
:101CA0007F480093043300F037F905237D4A009301
:101CB00001217D4800F030F97C4B5A68FF2A02D898
:101CC000802252005A608022734B6E4C12011A60BF
:101CD0002169002907D0606901F098FE01304300B6
:101CE0001B18033BFDD2E022704B714819680A4073
:101CF000026002221968514001320A400421026048
:101D00009A681142FCD080216A4A09011160802240
:101D100052005A60684B2361684B5968FF2900D80C
:101D20005A60032201215B4B1A60644A936819428E
:101D3000FCD0E0231068034061480360126803236D
:101D40004A40022113405D4A036093681942FCD067
:101D500080215C4B0901196080215B4B4900516077
:101D600063615A4B5A68FF2A00D859608022584B49
:101D700012011A60E169002907D0606901F046FE8E
:101D8000013043001B18033BFDD2E0234F4A11688A
:101D90000B4050490B6080214F4B09011960802195
:101DA000394B49005160E3614C4B5A68FF2A00D817
:101DB000596080224A4B12011A60216A002907D01B
:101DC000606901F023FE013043001B18033BFDD284
:101DD000E023424A11680B4042490B608021424B8C
:101DE0000901196080235B0053608022264BD202D8
:101DF00023623E4B5968914200D25A6080223C4B8C
:101E000012011A60616A002907D0606901F0FEFDC5
:101E1000013043001B18033BFDD2E023334A116815
:101E20000B4034490B608021334B0901196080233A
:101E3000DB025360154B6362304B5A68FF2A02D8AD
:101E4000802252005A6080222D4B12011A60A16933
:101E5000002907D0606901F0D9FD013043001B184B
:101E6000033BFDD2E023254A11680B4025490B6056
:101E70008021254B0901196080235B005360124BC0
:101E8000A361F7E6D0240020006CDC021BB7000041
:101E9000008000403CB0004030B00040002F685946
:101EA00000800240008C864700C002403080004025
:101EB0003090004030A00040001BB7003C80004044
:101EC0003C9000403CA000404059730754800040C3
:101ED00054B000405490004054A000406080004046
:101EE00060B000406090004060A000406C80004006
:101EF0006CB000406C9000406CA0004048800040F6
:101F000048B000404890004048A00040014B80008D
:101F1000C0587047D0240020F8B5040021481D00A7
:101F200017000E0001F072FD0100380001F06EFD97
:101F3000069B29041B0319432368002B20DB1A4B43
:101F40001A4DE21853425A4180235B019C4612030A
:101F5000174B62441A60174B1A601700AB689F4317
:101F6000FBD1C022231D92011A4321232660A060C9
:101F700013602368002BFCDA0823E1601360F8BDCE
:101F80003F2322681340B342D9D1A3681B051B0D20
:101F90008342D4D1EE22E368D20213408B42CED1E9
:101FA000EDE7C046001BB7000040FDBF00C0004089
:101FB00000E0004000F000408023024A9B00034301
:101FC000D362704700800540AA23064A1B011360B4
:101FD0002F230549D360054B19605368002BFCDAA9
:101FE0007047C0460040024000B0FA000060024066
:101FF0002B4B2C4A70B51A602B4A2C4B2C491A607B
:1020000014008B689C43FBD12A4D2B4EB54208D25D
:10201000013E761BB60808CD984723000134B34231
:10202000F9D1FFF70FFE254A204B1A60204A93682A
:10203000DB43DB01DD09002BF9D14022204B214E8F
:10204000214C9A675A671A67DA66B44208D2236845
:1020500020000834002B1FD0FEF76AFEB442F6D3EE
:102060001A4C1B4EC022B168200002F099FCB460EB
:10207000FEF7ACFBFEF734FEFEF7F6FF154C164EEE
:10208000B44208D2013E361BB60808CC98472B0054
:1020900001359E42F9D170BDFEF73CFED5E7C04642
:1020A00000E00040BFCDFBFEFE7F3C0000F00040A2
:1020B00000C00040DC210020EC210020FFFFFF01D8
:1020C00000F00140DC210020D4210020000000208D
:1020D00000ED00E0EC2100201822002000BEFDE70A
:1020E000094A03001068002805D00849C3188B422C
:1020F00007D81360704706480449C31810608B4224
:10210000F7D901204042F5E7CC3900200000042037
:10211000383C002000207047012040427047C046F4
:1021200010B5FFF7DBFFC04630B50D0083B01900D6
:10213000002A0BD0074B084C0192009302002B00A1
:10214000200001F0C9FB0120FFF7C8FF034B1A0074
:10215000F1E7C046BCA30410CCA304101CD30410A8
:102160000FB400B5084883B002F0CAFC049B002BF2
:1021700007D005A91800019101F0CEFB034802F039
:10218000BFFC0120FFF7AAFFFCA3041084E00410A9
:1021900010B50148FFF7E4FF0CA404109A4200D2E6
:1021A000885470477047C046F8B557464546DE46E6
:1021B0004E46E0B598460A9B06009A460D9B0F00D6
:1021C000934615009B0710D10B9B0C9A93420CD29F
:1021D00013005C460B9A9D1A5D442200434601346D
:1021E00039002020B047A542F7D10B9C6319002C81
:1021F00009D01D0053462A1B013C185D3900434697
:10220000B047002CF6D10D9B9B070ED55B46EC1A10
:102210000C9BA34209D999462A0043463900202045
:102220000134B0470135A145F6D82800F0BCBB46C3
:10223000B246A946A046F8BDF0B54F464646D6463A
:10224000C0B584B098460EAB1B7894469946129B55
:102250000D9C109F119E9A0724D4002E6AD1BC4277
:1022600020D201221A409246202C00D1D2E00C9AB2
:10227000551E302201E0202C30D001342A55A742CF
:10228000F9D85246002A0DD0B4420BD20C9A551EF2
:102290003022202C02D126E0202C63D001342A5594
:1022A000B442F9D1DA0634D55A0564D4002C5ED193
:1022B0000F9A102A00D197E0022A00D1A8E030221C
:1022C0000C9C227001244A46002A5ED15A0700D491
:1022D00083E02B220C9D2A5501341CE05246002A33
:1022E00002D0202E3ED92024DA0614D55A0512D465
:1022F000202F00D1A1E0202E3DD120261F22340026
:102300000F9D102D00D18BE0022D52D030250C9F57
:10231000BD54202CD7D103930C9B624600930296A8
:1023200043460194FFF740FF04B0E0BCBA46B14613
:10233000A846F0BD012215001D40AA461A4229D028
:102340004A46002A39D10C321A4236D1BC429BD2BD
:10235000202C00D08BE710221A40202EC3D8002A50
:10236000A2D1D8E72024DA06D5D55A0503D4A7424E
:1023700025D0B44223D00F9A102A25D0022A14D097
:10238000202CC8D022000134C0E72D220C9D2A55F4
:102390000134C0E7BC4200D384E7202C00D066E7BC
:1023A00010221A40002AE0D1B5E7202CB3D0220039
:1023B000013462250C9FBD54E2E7013EC6E7621E70
:1023C000012C00D174E79BE79A0616D4202CA2D0EA
:1023D00078220C9D2A550134D2E71A079BD520227A
:1023E0000C9D2A55013496E79A060FD478220C9C4E
:1023F000227030226270022465E7202C00D18AE727
:1024000058250C9A121915700134B9E75822EEE7D5
:102410006222ECE7102255461A40002D9FD1C1E7F9
:10242000023C9D0604D478250C9F3D551400A9E775
:1024300058250C9F3D551400A4E71F2260E7C046B5
:1024400010B5002800D110BD02F00EFBFBE7C0461E
:10245000F0B557464E464546DE46E0B599B0824651
:10246000894690460893229A239B1000190001F098
:102470009EFD002800D0CDE0229823990122D94B5F
:10248000524201F08FFD002800D0C3E0229823992A
:102490000122D54B524201F06FFD002800D0B9E077
:1024A000229823990022002301F066FD002800D025
:1024B000F1E1229E239F8023269ADB001A400D9291
:1024C000269A1A4201D1062324938023269A1B01BF
:1024D0001A403B0093460996334300D0B3E0002AEC
:1024E00000D0C2E1002300240A930B9400230425AA
:1024F0000993259B0024AB4200D95C1B0223269A3A
:102500001A400C92269A134203D06B426B415B42F5
:102510001C40099B002B07D00A9A0B9B3000390006
:1025200001F0C1FC06000F0022982399002200232D
:1025300001F022FD002803D0802109067B181F002E
:10254000269AAA4B009601971340089E0493249B59
:1025500003940293424633004946504600F0AAF9DC
:102560000400002D67D02020269A4946024013001F
:102570005A4253415B42621C18400A9233002200C7
:102580004530D047099A6F1ED317D4185C40D30F3B
:102590009B46002501E0202D13D008AA94461F2356
:1025A000200063440A2101355E1901F02FFA303111
:1025B000317020000A2101F029FA26000400092EBA
:1025C000E9D805230693002304930A3303935B465B
:1025D000089E029310AB0A9A009349463300504676
:1025E00005970195FFF728FE0C9A0400002A22D0D7
:1025F0004246851A259AAA421DD9B046574616006A
:1026000022004346494620200135B8470134AE42F6
:10261000F6D810E0269B42460493259B4946039337
:10262000249B50460293229B239C00930194089B79
:1026300000F040F90400200019B0F0BCBB46B246DF
:10264000A946A046F0BD6A4B78009C46400D604408
:1026500001F0C0FC674A684B01F043FC674A684BD5
:1026600001F018FC674A3B031B0B1A4304000D00E2
:1026700009981100644B002201F003FC634A644B8B
:1026800001F02FFC02000B002000290001F002FCE9
:1026900001F0B8FC099001F09DFC5E4A5E4B04001D
:1026A0000D0001F01EFC00225C4B01F0F3FB01F079
:1026B000A9FC5B4A5B4B29000C90200001F011FC47
:1026C00004000C980D0001F085FC574A574B01F0AF
:1026D00008FC02000B002000290001F0D2FB0400DE
:1026E0000D0002000B000A940B9501F0FAFB0400A8
:1026F0000D000A980B9902000B0001F0CBFB0022A1
:102700000E900F914A4B2000290001F0CCFB0022D3
:10271000484B01F0BFFB02000B002000290001F034
:10272000C2FB0022444B01F0B5FB02000B0020006D
:10273000290001F0B8FB0A9A0B9B0D0080210400D0
:10274000C905002001F09DFB02000B0020002900BC
:1027500001F0A0FB02000B000E980F9901F0A3FB03
:102760000022284B01F096FB344B0C9C9C466444A1
:102770002305002201F0B5FB04000D0002000B0050
:10278000300039000A940B9501F0F6FB00285DD16A
:1027900023002A00C625099963318D42AD4159466F
:1027A0006D420435002900D1A3E6134363D0300005
:1027B0003900234A234B01F0EDFB002807D000220B
:1027C00030003900204B01F0D7FB002853D1249B67
:1027D000002B00D18DE60D9B5A1E9341249AD31AEB
:1027E000249386E6FFFFEF7FFFFFEFFFFFF7FFFF7A
:1027F00001FCFFFFFB799F501344D33FB3C8608BAC
:10280000288AC63F0000F03F0000F83F61436F6335
:10281000A787D23F71A379094F930A400000E03F98
:102820001655B5BBB16B0240EF39FAFE422EE63FBA
:1028300000002C400000244000001840FF0300006E
:102840002D431CEBE2361A3F80842E41099B002267
:10285000013B09932000164B290001F024FB0A00DC
:10286000010003000A910B9294E7002300240A93CD
:102870000B9400230993249A099B9A4214DDD31ADE
:10288000013B24938023269ADB001A430023002572
:10289000269209932DE6802212069446229B1E0062
:1028A000239B63441F0006E600232493EAE7C04607
:1028B00000002440F0B54546DE464E465746E0B59A
:1028C00095B08B46904699461E9A1F9B0A90190018
:1028D0001000209D01F06BFB002800D0B0E11E9895
:1028E0001F990122C74B524201F046FB002800D03D
:1028F00037E11E981F990122C34B524201F052FB4F
:10290000002800D0A7E01E981F990022BF4B01F0BD
:1029100049FB002800D088E01E981F990022BC4B7C
:1029200001F02AFB002800D07FE01E981F990022AA
:10293000002301F021FB002800D0FAE000230B93D4
:102940008023229C229ADB001C401A4200D102E123
:10295000092D00D87EE106A98C462C001722002301
:102960003021093C62440133D154EF1A202B00D1AD
:1029700032E1A342F7D10022A44B069207931E989E
:102980001F9901F03FFB050001F024FB02000B0042
:102990001E981F9901F075FA069A079B01F0A1FA9B
:1029A0000890099101F052FB060001F00FFB0200B4
:1029B0000B000898099901F064FA0022954B0890E1
:1029C000099101F0EFFA002800D1D2E00136300081
:1029D00001F0FCFA069A079B01F0DCFA002801D00E
:1029E00000260135AA46002F00D098E0280001F00B
:1029F000F1FA02000B001E981F9901F042FA854B74
:102A0000002206000F0001F0B7FA0CAB9A4600282E
:102A100045D10022300039007E4B01F0C3FA002876
:102A20003DD1EB073BD5013539E0229B424604936B
:102A3000219B594603930A981E9B1F9C0295009365
:102A400001944B46FFF704FD15B0F0BCBB46B246FF
:102A5000A946A046F0BD229B5B0767D403226E4BBC
:102A600022990192039121990291009342464B468B
:102A700059460A98FFF798FBE6E706AA94461723FB
:102A8000280063440A2101341E1900F097FF3031F9
:102A9000280031700A2100F091FF051E76D0202C0D
:102AA000EBD10323229A1340012B1DD1219B002B34
:102AB0001AD00B9B002B00D0BBE0229A0C331342A0
:102AC00000D0B6E0219BA34200D887E006AB9C462D
:102AD00017223023624404E02199013413558C42BB
:102AE00059D0202CF8D12024229B01940393219BC0
:102AF00002935346B9E706AA944617230A21634472
:102B0000300001341D1900F081FF30312970300090
:102B10000A21013F00F07AFF092E46D90600202C39
:102B2000E9D155460CAB20249A46B8E704223B4B2A
:102B300096E71E9A1F9B0020002101F0A2F90123B5
:102B40000B938023229C229ADB001E901F911C4035
:102B50001A4200D0FCE60022314B0627069207936A
:102B60000DE7229B0393219B0293042301932D4B9A
:102B70007BE7002208980999264B01F0FDF900280F
:102B800000D02FE7002E4FD101362BE70323229AE6
:102B90001340012B68D0202CA6D00B9B002B1FD0FC
:102BA0002D235246135501349EE75546202CB9D0AB
:102BB00030223B19002F4BD0172006A901340918E9
:102BC0000A55202CAED09C42F6D10CAA92462E2259
:102BD00051465C1CCA5462E72024CCE6202C83D0EA
:102BE000229B5B0708D4229B1B0700D47CE7202391
:102BF00052461355013477E72B23524613550134BF
:102C000072E7C046FFFFEFFFFFFFEF7F65CDCD41CD
:102C100065CDCDC10000E03F20A4041018A404102D
:102C200080842E4128A40410F30700D4DAE601368C
:102C3000D8E6219B013B2193A34200D946E7AAE7AE
:102C4000229B0393219B029303230193084B0CE7E0
:102C50002300BAE7074BEA009B185C681B682F004B
:102C60000693079400248AE6219B002B93D020E74B
:102C700024A40410D0A50410F0B54546DE465746FE
:102C80004E46E0B5A1B01D002A9B90460B93D04A5A
:102C9000D04B83468A461A60002900D1A4E1002364
:102CA00028789946002800D1A6E1CB4B5E460993CF
:102CB000CA4B4C46D34647460D930AE0631C9846E0
:102CC00022003B005946B04744462878002800D1EE
:102CD000CDE001352528F1D108239A46043B9946D9
:102CE000023B9846013B00229C460C942878691CC4
:102CF0000300203BDBB2102B03D8099C9B00E35858
:102D00009F460300303B0C9C0A92092B7FD900237D
:102D100098462A2800D1C1E000239A462E2800D1E7
:102D200090E00300683BDBB2122B1ED8AC4A9B003C
:102D3000D3589F4663460D001A43D7E743460D001C
:102D40001A43D3E74B460D001A43CFE710230D007B
:102D50001A43CBE753460D001A43C7E780235B00B5
:102D60000A9A68781A430A9201310D0067280AD836
:102D70002428A3D90300253BDBB2422B9ED80D9A11
:102D80009B00D3589F4601006939C9B20F2995D8D5
:102D900001238B409C46934B994663464A46134019
:102DA0000C9362464B461A4200D05EE20A2900D1DB
:102DB00024E1072982D10B9B02CB9846002900D140
:102DC0009BE121200A9A0243914610AB9C461F22A8
:102DD0000F23404662440B959C46A04615000C9B71
:102DE0000A9002E0202B0CD0110064460C40200019
:102DF0003730092C00D807380133E8540A090F2965
:102E0000F0D80C930A9B44460B9D984685E100231D
:102E100098460A9B45469C4600E00131AB005B1991
:102E20005B001D180878303D0300303B092BF4D9B6
:102E300063460A930023A8469A460D0001312E28C6
:102E400000D06EE780200A9AC00002430A92302226
:102E50005242944668780B0084446246092A00D89E
:102E60002EE12A2800D13DE10D00013159E7DA4673
:102E7000A146B346B846C84503D801235B42434444
:102E8000994643464A4651460020D847200021B083
:102E9000F0BCBB46B246A946A046F0BD0B9B04CB96
:102EA0009046002A04DB68780B930D00013133E76C
:102EB0000A9A283802430A9242465242687890465B
:102EC0000D000B93013127E7672800D1C7E14728A0
:102ED00000D114E2452800D116E20A9A0721049293
:102EE00042460B9B0392073352468B4319000292D2
:102EF0000CC93000009201930B9122003B0059460F
:102F0000FFF7A6FA0400E0E680239B0028E7687834
:102F1000682800D11BE280230A9A01311A430A92E1
:102F200023E768786C2800D109E280230A9A5B00C5
:102F30001A430A92013118E7462800D18AE10A9A19
:102F40000721049242460B9B0392073352468B4360
:102F5000190002920CC93000009201930B912200DB
:102F60003B005946FFF7A6FC0400AEE6631C9846FA
:102F700022003B0059462520B0474446A5E60B9B5E
:102F800004330C93631C99460A9B9A0700D4E7E12B
:102F90000B9B2200187859463B00B04743464444F7
:102FA000012B00D8B8E22B00B84625005F464C46FE
:102FB000994622004346013439002020B047AC42F4
:102FC000F7D12C00BB464D4647460C9B0B937CE645
:102FD000792C0010D439002030A40410C0A40410AF
:102FE00074A4041041900000DC4B28789B46002319
:102FF0009946002800D058E600243CE70B9B02CB02
:1030000012930B789C4618005346002B00D09CE08E
:10301000002812D002235B420133994689444A4674
:103020000B008946110001E08B4203D05A7801332E
:10303000002AF9D149465B1A0C938023DB0099469C
:103040000A9A13400B934B461A4204D00C9B5345EB
:1030500001D953460C93022399460A9A13400A93C6
:103060004B46134200D1B5E16346002B00D197E1F6
:103070000B9B002B00D14CE1D1460B1B9A462B0039
:10308000A1444D462200B9465F469B4609E04B46A7
:103090003900541CB0475346185D002800D158E150
:1030A00022009542F3D15B46BB464F46A9461D0020
:1030B0004C460A9B002B00D072E1129B0B9304E656
:1030C00055460A9AA9004919490001330D18187884
:1030D000303D010030390929F4D9AA460A921D0071
:1030E000591C1EE60B9BA87804CB0235D143C917A7
:1030F0000A4092460B93691C13E60A9B10211A00A2
:103100008A43100011310843814680201A00C00014
:1031100002401100034200D157E64B4608220693B5
:103120005346059208320392002204930C9B0292AC
:10313000019318AB2200009359463B003000FFF783
:103140007BF8434604000B93BFE5002800D174E7E9
:103150005346013B60E7622800D1DFE1582800D1E7
:10316000ECE10A9980230A00DB001A4010000A00F3
:10317000194200D1BDE111239A430C920C9A80238D
:1031800011009B0019408C461A4200D046E1802372
:1031900011005B00194089460B9904310A911A42CB
:1031A00000D08FE213005B0600D59EE113001B06E2
:1031B00000D426E30B9B00229B5ED9175A184A4085
:1031C00092B2D90F0B91002B00D177E2100010AA18
:1031D000944642461F23129252466344AA461494D0
:1031E0004D460400B946B0461F00139201E0202D61
:1031F0000FD020000A2100F009FC01357E19303182
:10320000317020000A2100F001FC26000400092E84
:10321000EDD8129B46469846139B4F46A946554605
:103220009A46149C0C9B069343460593534604937D
:103230000A2303930B9B02934B46019318AB220086
:10324000009359463B003000FEF7F6FF0A9B04004E
:103250000B933AE520230A9A1A430A926FE68023D9
:103260000A9A1B011A430A9237E6782800D0AFE188
:103270000A9880230200DB001A4011000200184265
:1032800000D1D0E20D239A43100003330A93802328
:1032900002009B001A409446184200D0ACE1802303
:1032A00002005B001A4091460B9A04320C921842BD
:1032B00000D04AE2430600D493E20B9B1B780893AC
:1032C000002B00D04BE110339843002900D146E198
:1032D0000023994643460593534604930A9B069060
:1032E0000393002302934B46019318AB22000093F3
:1032F00059463B003000FEF79FFF040065E680233F
:103300000A9A1B011A430A9220230A9A1A430A9224
:10331000E3E50B1B9A460C9B99462B005D469B46AA
:1033200022003B002900B04753460134185D0028B5
:10333000F6D14B460C935B46AB461D00B9E6C02365
:103340009B000A9AA8781A430A92E91C0DE5C0234B
:10335000F7E75D46BB464F46ABE6C046A5210010E9
:103360004346012B00D8D1E0631E4344B9461D00FB
:103370005F46A2468B4622004B460134390020208E
:10338000B047AC42F7D15D46BB464F46A1465446D6
:103390000B9B4A46187859463B004444B04714E614
:1033A0000C9BA146984500D887E64444E41A2B00BC
:1033B000B84625005F464C469946220043460134F4
:1033C00039002020B047AC42F7D12C00BB464D4617
:1033D000474672E60C98804500D81CE243461A190D
:1033E000131A99462B004D46B9465F469B460C91F1
:1033F00022004B46013439002020B047AC42F7D1BF
:1034000043460C9901330C930B785D469C46BB46B2
:103410004F466046002800D02AE64EE607220B9B66
:1034200007339343013294469C4462460B920CCB83
:10343000D90F0A91110019435FD0D917119110913A
:1034400051400E91119959400F910E980F99109A71
:10345000119B801A99410E900F9110AA0023944657
:1034600042469946129252461F336344B046AA46DA
:103470004E461494B9460E9C0F9D1F00139201E016
:10348000202E10D0200029000A22002300F0FCFA90
:10349000013630322B00BA550D0022000400002BFB
:1034A000EED1092AECD8129B4F46B14646469846C3
:1034B000139B0E940F9555469A46149C0C9B0693AD
:1034C00043460593534604930A2303930A9B0293AE
:1034D0004B46019318AB2200009359463B00300045
:1034E000FEF7AAFE0400FFF7F0FB0B9B1B781A0007
:1034F00067E610239A430C9240E600239946002881
:10350000DCD1002200230E920F93A6E70B9B220032
:10351000187859463B00B0474C4656E50A98802338
:103520000200DB001A401100184200D15FE10200E6
:103530000D239A430B3B10000A93A8E60A988023B8
:103540000200DB001A4011000200184200D166E1BF
:103550000D2320209A43033310430A9397E66123F7
:10356000820600D54123DBB20A3B0B93434610A9E8
:103570001F228C46129353466244AA461494159710
:103580004C468046B14617000A9E089D139308E0FA
:103590003033DBB201343B55B5420ED3202C0CD076
:1035A00005003100280000F031FACBB20929EFD92B
:1035B0000B9A94466344DBB2ECE7129B4046984674
:1035C000139B4E465546A1469A46149C159F81E68C
:1035D0006F2800D037E10A990C230A009A43802310
:1035E00010000A00DB001A4011000A9A1A4200D0AB
:1035F00021E108230A934AE60B9AFA3BFF3B073284
:103600009A4301339C46944463460B931368526873
:103610000893134312921A1E05D1002310329946C3
:103620009043002941D16122810600D54122D2B2C6
:103630000A3A0C924246002310A9139252468C4635
:10364000994614921F330A9A6344AA461594179612
:103650004C469046B946089E1F00129D16900AE0FF
:103660003032D2B2002301343A55AB4211D0202C73
:1036700011D006000D00424600233000290000F062
:1036800003FAD2B2092AEBD90C9B9C466244D2B20F
:10369000E8E7B045EBD9139B55469846149B4F4637
:1036A0009A46A1461698179E159C43460593534685
:1036B00004930A9B06900393002308E7002800D098
:1036C000B0E584E50B9B1B68DA0F1100002B00D1DD
:1036D00094E0DA179818504010AA914642461F23EA
:1036E000129252464B44A046AA4614970400B14693
:1036F00065461F000B91139201E0202D0FD0200092
:103700000A2100F083F901357E1930313170200033
:103710000A2100F07BF926000400092EEDD8129B47
:10372000444698460B9BAC461900139B55464E46A3
:103730009A46149F0C9B0291069343460593534669
:1037400004930A230393634677E50B9B1B68089356
:10375000002B03D110339843002937D1612382060F
:1037600000D54123DBB20A3B0B93434610A989469F
:103770001F22129353464A44AA46B1461494159701
:10378000644680461700089D0A9E139308E0303374
:10379000DBB201343B55B5420ED3202C0CD00500D2
:1037A0003100280000F032F9CBB20929EFD90B9A89
:1037B00094466344DBB2ECE7129B40469846139B69
:1037C00055464E469A46A446159F149C434605937B
:1037D000534604930A9B0690039300230293634687
:1037E00082E5030613D50B9B1B88089368E502004E
:1037F0000C239A430A3B10000A9348E5002899D10C
:103800006AE70B9B1B68D9175A184A40D9E40B9BEF
:103810001B68089354E5030001330C93F9E520235A
:103820000A9A1A430A920C230A9A00219A430433F3
:1038300010000A932BE50A9B0C9308230A930D238F
:103840000C98984323E510230A9A9A430C9269280E
:103850000AD10A9980230A00DB001A4010000A00EE
:10386000194200D18AE486E40A991C230A009A438B
:10387000802310000A00DB001A4011000A9A1A4245
:1038800002D10A230A9302E50A230A93D7E7C04626
:103890000EB4012230B584B007AC08CC064D01004F
:1038A0000094280052420394FFF7E6F904B030BCBC
:1038B00008BC03B01847C0469D21001010B5054C48
:1038C00082B0009313000A0001002000FFF7D4F932
:1038D00002B010BD9D2100100FB430B50C4985B069
:1038E00008AA08CA0D680392002D0CD0009201228C
:1038F000084C5242200002A9A847012005B030BC64
:1039000008BC04B01847180001F0FAF80020F5E7E9
:10391000D43900204124001010B5094A030014686E
:1039200084B0002C08D0012200910648524203A91D
:10393000A047012004B010BD01F0E2F80020F9E733
:10394000D43900204124001001480421014B1847BC
:103950004011002079390010142310B50100188897
:1039600004331B88984710BD162310B50100188832
:1039700002331B88984710BDF8B54746CE4680B540
:103980000F1E19D014239946043304000025012684
:1039900098464B461888434621681B88984701C4BF
:1039A000431E9841013540420640AF42F1D13000FC
:1039B000C0BCB946B046F8BD0126F8E7124A936F7D
:1039C0009B0815D29066D166002905D0FFE7FFE776
:1039D000FFE7516F106F704704B580210906C217C9
:1039E0005140002800D0C84346F06AFC002104BDC5
:1039F000F0B5146E556E576F166FFFF7E3FF146640
:103A0000556657671667F0BD000000D0114A936FE6
:103A10009B0813D210665166002905D0FFE7FFE727
:103A2000FFE7516F106F704704B5002801D00020E8
:103A3000C04346F045FC002104BDC046F0B5146EFD
:103A4000556E576F166FFFF7E5FF1466556657679B
:103A50001667F0BD000000D094464A4A926F920863
:103A6000624601D228E0C046F0B5464E346E756E0F
:103A7000776F366F00F020F89446424A1466556618
:103A8000576716676246F0BD94463E4A926F9208A9
:103A9000624601D254E0C046F0B53A4E346E756EBF
:103AA000776F366F00F04CF89446364A14665566C8
:103AB000576716676246F0BD002B24DB11D0002942
:103AC0003EDA00B5C943404200D1013100F038F878
:103AD000C943404200D10131DB43524200D101339E
:103AE00000BD002AEBD1002801D1002905D000201B
:103AF000C90FC90701D1C043410800B546F0B8FB62
:103B00000022002300BD00B500290ADBDB4352423E
:103B100000D1013300F014F8C943404200D1013113
:103B200000BDC943404200D10131DB43524200D1C4
:103B3000013300F005F8DB43524200D1013300BDF0
:103B4000002923D1002B18D1002A0CD0BC460D4FE0
:103B500038667A6600210023FFE7FFE7FFE77A6F08
:103B6000386F67467047002801D00748010000B54C
:103B700046F07EFB0022002300BD02000B00002067
:103B800000217047000000D0FFFFFFFF002B00D096
:103B9000BFE0130C28D1002AE7D080B4114F39665A
:103BA0007A66FFE7FFE730B4040C7B6F396F1B04C4
:103BB00023433B667A66FFE7FFE7FFE7C04684B230
:103BC0007B6F3D6F1B0423433B667A66FFE7FFE78D
:103BD000C04600232C042D0C7A6F386F0019694100
:103BE000B0BC7047000000D0F0B594460025140E1C
:103BF00001D112020835140F01D112010435940FBE
:103C000001D192000235D40F01D152000135D40BFD
:103C10000134254F7C66254C3C660E0C93B2FFE7C1
:103C2000FFE7FFE73C6F6643360C7703BE467343FE
:103C3000DF0B5B04C01AB941130C7343DB18C91ABC
:103C4000CE086643360CB64493B273431F0F1B0174
:103C5000C01AB941130C73431F0B1B05C01AB9419D
:103C6000860D8F023E436643360C092D24DB520A33
:103C70007243801A7703460A6643360C16235B1B91
:103C8000DE40DF40BF1964466643821B7046043540
:103C900006330100D940A840C01900D30131A24227
:103CA00006D20023F0BD0000000000D0FFFFFFFFA0
:103CB000121B0130F3D3F1E709277F1BFE40644656
:103CC000A2B27243801A00D20139220C7243130C43
:103CD0001204821A99410B00704604351337010013
:103CE000F940A840801900D30131002B02D1A24233
:103CF0000AD2F0BD013000D30131121BFAD2013BD0
:103D0000F8D1A24200D2F0BD013000D30131121B24
:103D1000F7E7F0B51C0C00D080E00CB400251C0ABD
:103D200004D11B02160E3343120208351C0B04D1BA
:103D30001B01160F3343120104359C0B04D19B0069
:103D4000960F334392000235DC0B02D192185B418F
:103D500001351C00971864410134464F7C66464C7F
:103D60003C660E0CFFE7FFE7FFE7C0463C6F66438B
:103D7000360C7703BE4697B27743C01B00D2013999
:103D8000C01B00D201399FB27743C91BC91B170C56
:103D900077437E04FF0B801BB941CE086643360C87
:103DA0000C2D33DBB644120B1F053A431B0B97B2A5
:103DB0007743C01B00D201399FB27743C91B170C50
:103DC00077433E043F0C801BB941860D8F023E4372
:103DD000664329277F1BFE400C3D7746AF40BF1945
:103DE00030BCA2B2ABB272437343801A9941220C29
:103DF0007243130C1204801A994102000B00013720
:103E0000001BA941F9D2781E0021F0BD0C277F1BB1
:103E1000FE4077467F0BAF40FF19E0E700245D1CB2
:103E200007D0144F7D663966FFE7FFE7FFE7FFE73E
:103E30003C6F95B29EB265436643401BB141150C81
:103E40001E0C6543664336042F0C3E432D04401B75
:103E5000B141994204D202000B0020000021F0BDC4
:103E600001D19042F7D3801A994101349942F2D39B
:103E7000F6E70000000000D0FFFFFFFF4840414090
:103E8000484018B41B4B5B68FC46019308BD04DF37
:103E9000B741001018B4174B1B68FC46019308BDCE
:103EA00000DFC14100109446134A926F920809D274
:103EB000624618B40F4BDB68FC46019308BD0CDF6B
:103EC000794400100C4AF0B5146E556E576F166F9A
:103ED0006246FFF7EEFF084A146655665767166795
:103EE000F0BD18B4034B9B68FC46019308BD08DF86
:103EF0001D430010F8250020000000D0FFB5504001
:103F00004240504059404B40594000E0FFB5154FEA
:103F10004C00640D03D0BC4204D10C0314D8002023
:103F2000090D09055C00640D03D0BC4204D11C03DB
:103F30000AD800221B0D1B0501264B4009D44B401B
:103F400003D58B4200D18242FFBD9942FCD1904201
:103F5000FFBD0B43DB1803431343F5D0C943491896
:103F6000FFBD0000FF07000000B5FFF7CFFF01D045
:103F7000002000BD012000BD00B5FFF7C7FF804154
:103F800000BDC04600B5FFF7C1FF01D9002000BD4C
:103F9000012000BD00B5FFF7B1FF01D9002000BD31
:103FA000012000BD00B5FFF7A9FF804100BD012041
:103FB00040054A00121804D85A00121801D80020EF
:103FC0007047012070470020704700000021002842
:103FD00005D17047C1174840401AFAD0C90713B538
:103FE000064B1B6898470CBC441CA2401005120BE2
:103FF0000349091B09051943114310BD103C00205A
:104000001F04000010B54C00620D8023D218DB00A5
:10401000D21A5B057E2A10DD9E3A13DACC1709030B
:10402000490819435242D140640001341532202A14
:1040300005DAD0400843604310BD002010BD08469B
:10404000604310BDC80FC018013810BD18B4044B30
:104050005B6AFC46019308BD24DF2946001000007E
:10406000F825002018B4044BDB6DFC46019308BD15
:104070005CDF354700100000F8250020C94211D34D
:1040800000B549004908002200F018F8002904D4BE
:10409000002240428A41114600BD802109060020CD
:1040A00000BD000018B4044BDB6EFC46019308BD54
:1040B0006CDF374600100000F825002018B4044BD0
:1040C0009B6FFC46019308BD78DF5346001000004B
:1040D000F825002018B4044BDB6FFC46019308BDA3
:1040E0007CDFC14600100000F8250020132370B5C6
:1040F0001D78012D15D010DD1D48FFF735FC1D4C36
:1041000001008022200000F04BFC022D2DD01A4827
:10411000FFF722FC194B186070BD194B154CA364B6
:10412000F5E7174B134C23606360A360E3602361E2
:104130006361A361E36123626362A362E362236359
:104140006363A363E36323646364A364E364236539
:104150006365A365E36523666366A366E366236719
:104160006367A367E367A364D1E7054BA364CEE766
:1041700053440000F82500204C330000103C002080
:104180008541001007B5604601880A0A0230DF2A1F
:10419000FAD1C9B2820804D30288408800041043CF
:1041A00000E00068014A5050039007BDF825002048
:1041B0000FB403BC0CBCF0B50124E407634000E07D
:1041C000F0B50C0DCF0F661E3605891B640503D3B1
:1041D000C943404200D30131640D03D0661CF60A86
:1041E00007D0E41B00207F00791C89078912803CDE
:1041F00024031D0DDF0F6E1E36059B1B6D0503D3BB
:10420000DB43524200D301336D0D03D06E1CF60A1E
:1042100007D0ED1B00227F007B1C9B079B12803D7B
:104220002D032F1B661B58D4A446202E46DA2037B8
:104230001400BC401D00BD40F24033412A438018A9
:104240005941CB0F05D0C943C043002264425041BD
:10425000514162464D0D28D10D0D07D100281FD0C8
:10426000241940414941013A0D0DF9D0640006D3AB
:10427000013000D30131002C01D140084000013A47
:104280000BD4941CE40A04D112051144DB07194431
:10429000F0BDD907204B194300E0D9070020F0BD3D
:1042A0000029DDD1002CDBD1F0BD0132C60740086A
:1042B000CD0728434908002EE1D0D9E73C2E29DA62
:1042C000203E40371400BC4000D00124F24014438B
:1042D0001A00BB401C43D317ACE7AC46202F08DACA
:1042E00020360400B4400D00B540F8403941284361
:1042F000A5E73C2F0CDA203F40360400B44000D044
:104300000124F84004430800B1400C43C117EAE718
:1043100010001900002494E70000F07FF0B50C0DA8
:10432000661E3605891BE60A6405640D02D0651C0D
:10433000ED0A04D0002001210905803C2403A44695
:104340001C0D671E3F05DB1BE70A6405640D02D0E8
:10435000651CED0A04D0002201231B05803C2403C8
:104360007740644497B484B296B27443070C7E439A
:10437000150C6F4380B26843361802D30120000445
:104380003F183004350C00197D41844688B29AB23A
:1043900050430C0C62431F0C7C438EB27E43921937
:1043A00002D301263604A4191604170C36186741E7
:1043B00001BC81B29AB25143040C62431B0C5C43B2
:1043C00080B25843121802D30120000424181004AC
:1043D000130C401863412D185E410020474106BC74
:1043E00088B293B258430C0C6343120C544389B205
:1043F00051435B1802D301210904641819041A0CF3
:10440000091862416D1856410020474118BCF90255
:10441000720D1143F0026A0D1043ED020A0D03D133
:104420006D1940414941013B124E9B1B7600B3423E
:104430000ED26D0007D30130002671416646354328
:1044400001D1400840001B05C918E4072144F0BD14
:104450000BDA013306D1013004D101314F0D01D007
:104460004908F2E7E1070020F0BD013631050020E0
:10447000EBE70000FF030000F0B51C0D671E3F05D1
:10448000DB1BE70A6405640D02D0661CF60A04D043
:10449000002201231B05803C2403D0252D06002685
:1044A000F6432E661E096E66CE0FF619B446490015
:1044B0004F0D02D07E1CF60A03D000200021403FA1
:1044C0003F033E1BB600B444013F7F05C91B4908AA
:1044D0002E6F013676089C02950D25437543ED132A
:1044E0007543AD1301356D10F603761B0CB4CC0289
:1044F000450D2C43A2B2B3B25A43270C7B43350C73
:104500006F43A4B26C431B1902D3012424043F1946
:104510001C041D0CA4187D4124196D41009A91B210
:10452000ACB26143170C7C432B0C5F4392B25A43ED
:10453000A41802D301221204BF182204230C52181B
:104540007B41019C6C431B19520ED9010A43440163
:10455000A01A81B2B2B2514303145A43360C7343CA
:1045600087B27743D617D21900277E4136049B19AC
:104570001704160C7F185E417316ED18F301002620
:1045800080337541A90F06D16400690AE8055B0A0A
:10459000184309D22FE00422944480337541A90ABC
:1045A000A8059B0A184326D3404149412404009A98
:1045B000019B0D005543641B4343E41A95B286B238
:1045C0007543170C7E43030C5F4392B25A43B618EF
:1045D00002D301221204BF183204330C52197B415A
:1045E00052429C41002C02D400220130514140082B
:1045F000CA071043490802B06246D7079210084B19
:10460000D218084B9A4203D212058918C919F0BD75
:104610000020002A01DC3900F0BD01331905F5E75F
:10462000FD030000FE070000002200B5203200F06C
:1046300010F8080000BD002200B500F00CF8CA1701
:104640009A4200D100BDD8430121C907414000BDB5
:1046500000220B150AD410B5944600F0A7F81414E4
:10466000013400DA0021CB17144C20470020002130
:1046700070476244343A0CD40C2A07DA04009140A3
:10468000904052422032D440214310BDD843D943F8
:1046900010BD203207D40C469440524220321141C2
:1046A000D040204310BD0800C917203203D4524225
:1046B0002032104110BD1800190010BD73460010C3
:1046C0004A00520D144BD21A13DDFF2A1EDAD2050E
:1046D000CB0FDB071A43C300400F0903490A084305
:1046E00010435B0001D301D0013070474308FBD277
:1046F000704702D0C80FC00770470A031213013277
:10470000F8D1420F072AF5D1012200E0FF22C80F9D
:1047100000028018C00570478003000000210A00D5
:10472000002104E000210A00C11704E00022002358
:1047300006E0C0460022CB1758405940C01A9941A4
:1047400030B5184CA21A002903D1010010D0002066
:10475000203A4C1512D104D2013A001849414C0DAF
:10476000FAD3114CA24204D212058918DB07C918EA
:1047700030BDD243520D00200021F5E703D4013AA9
:1047800000184941FBD50B324405C00A4D052843AA
:10479000C90A640003D0002460416141E1E7E0D32D
:1047A0004408F8E732040000FE0700000A0DCC0FB1
:1047B000531E1B05C91A520503D3C943404200D3F7
:1047C0000131520D03D0531CDB0A07D0121B00200D
:1047D0006400611C89078912803A1203014BD21AC6
:1047E00070470000FF03000051434343C9188C4643
:1047F000110C83B24B4310B4040C614392B280B2EB
:10480000504362431C041B0C001910BC5941130493
:10481000120CC018514161447047000007B5484070
:104820004140484001E0C04607B54200120E03D0A7
:10483000FF2A03D1420218D8C00DC0054A00120E4B
:1048400003D0FF2A03D14A020FD8C90DC90501229E
:10485000414005D4414001D5814207BD884207BD92
:104860000143491801D0C043001807BD00B5FFF748
:10487000DBFF01D0002000BD012000BD00B5FFF727
:10488000D3FF01D9002000BD012000BD01231B067C
:104890004200D21804D84A00D21801D8002070472C
:1048A00001207047132310B512481C78FFF75CF8FD
:1048B0000100012C0AD003DD80220F4800F070F8BF
:1048C0000E48FFF749F80E4B186010BD0A4C5422F1
:1048D000200000F065F80B4B6365A365E365236674
:1048E0006366A366E36623676367A367E367236280
:1048F000E361E5E753460000F82600204C33000052
:10490000103C00200949001007B5604601880A0ADA
:104910000230DF2AFAD1C9B2820804D30288408863
:104920000004104300E00068014A5050039007BDA6
:10493000F826002010B5040035F0CEFF002804D082
:10494000034B04199C4200D810BD0248FDF708FC37
:104950000000042020A6041010B50C0036F0C2FAA6
:10496000002804D0034B04199C4200D810BD024813
:10497000FDF7F6FB0000042020A6041010B535F06A
:10498000B5FF10BD01480421014B1847501100200C
:1049900079390010014B1B681847000050110020A6
:1049A000014B5B68184700005011002010B5FFF75D
:1049B000C1FF10BD10B5FFF7BDFF10BD10B5FFF76B
:1049C000DDFF10BD10B5FFF7D9FF10BD10B5FFF723
:1049D000D5FF10BDF0B5C64600B5437D07000D00FC
:1049E0001600002B38D0002A2EDD00216A1E9046CA
:1049F0006A5C037D4C1C00200A2A0CD0A64216D00B
:104A000043461B5D21000D3B5A4253416A5CDBB2B9
:104A10004C1C0A2AF2D1002BF0D1814217DC022172
:104A200010483B689847A64207D02000E8E7864236
:104A300003DD311A3B6828189847AD19013D2B78E2
:104A40000D3B5A4253413B7580BCB846F0BD091A34
:104A50003B6828189847E2E7036811002800984748
:104A6000F2E7C04698A60410F0B5CE46474680B59A
:104A700083B06B460600DD1D2870FCF737FD002370
:104A80001A4A12184B41802109068B4202D3012297
:104A9000174B524217490800884645F031FC164B27
:104AA00081461C68002C14D0144F02E02469002CAD
:104AB0000FD02368002BF9D03B68002B01D0A34214
:104AC000F4D1200001222900FFF784FF2469002C83
:104AD000EFD14B46002B05D1300003B0C0BCB94626
:104AE000B046F0BD404645F0BBFBF5E740420F0045
:104AF000FFFFFF7FD4210020C0390020C8390020EB
:104B0000F0B5DE4657464E464546E0B585B007004F
:104B10003AF0E2FE0600FCF7E9FC00232B4A1218EB
:104B20004B41802109068B4202D30122284B52427D
:104B3000284908008B4645F0E3FB274B01901C6891
:104B40009A46002C3BD0254B984602ABDD1D0A232C
:104B5000994602E02469002C17D02368002BF9D075
:104B600043461B68002B01D0A342F3D12000320042
:104B70003900FFF72FFF4B462000012229002B7040
:104B8000FFF728FF2469002CE7D1019B002B18D1E7
:104B900053461C68002C06D06368002B0BD0984746
:104BA0002469002CF8D1300005B0F0BCBB46B246F9
:104BB000A946A046F0BD2469002CEDD1F3E70028FA
:104BC000F1D0584645F04CFBE2E7C04640420F00AA
:104BD000FFFFFF7FD4210020C0390020C83900200A
:104BE000F8B557464E46DE464546E0B50E0017007E
:104BF00000282CD11B4B1C4D1A685B6893469A46C3
:104C00001A4B99461A4B98464B461C68002C03D108
:104C100015E02469002C12D02B68002B01D0A34290
:104C2000F7D1A368002BF4D0390030009847002852
:104C3000EFDDF0BCBB46B246A946A046F8BD4346F0
:104C40005B6A9A4508D84246926A5A4502D30120C7
:104C50004042EEE79A45FAD101200021FCF750FCD2
:104C6000D2E7C04690A30410C8390020C039002004
:104C700000400540F0B54646D6464F4601380D0087
:104C80009046C0B5012841D8FCF730FC0023214AEA
:104C900012184B41802109068B422FD21E494746EC
:104CA00008008A4645F02CFB43468146013303D178
:104CB00028003AF011FE0700184B1C68002C14D095
:104CC000174E02E02469002C0FD02368002BF9D086
:104CD0003368002B01D0A342F4D120003A00290010
:104CE000FFF778FE2469002CEFD14B46002B09D149
:104CF0004046E0BCBA46B146A846F0BD0122094B89
:104D00005242CBE7504645F0ABFAF1E70120404272
:104D1000EFE7C04640420F00D4210020C0390020F8
:104D2000C8390020FFFFFF7F012040427047C04686
:104D3000012040427047C046012040427047C046B3
:104D40000300022200209A42404170470A4A136839
:104D5000002B05D10CE01A001B691032002B07D084
:104D60009842F8D1002902D10369136001617047AC
:104D70000029FCD01060FAE7C039002010B500F01F
:104D8000CBF8012010BDC046F0B5002915DD0E4B53
:104D90000D271A680D4B0E4CD3185D426B41451818
:104DA00020215B001E5F0478A64207D09369194258
:104DB000FCD101301460A842F5D1F0BD93691942CD
:104DC000FCD11760F2E7C0462C3C00200080FCBFFD
:104DD000283C0020214B70B504000D1E1E682CDD00
:104DE000002010211E4B013C1A689369194215D10D
:104DF000013093691942FCD1136823548542F4D1E0
:104E0000002E09D0502338219363536B343219405C
:104E100080235B011343196028000DE0002E09D0A8
:104E2000502338219363536B3432194080235B0144
:104E30001A43116000280ED070BD002E0BD05022F6
:104E40003821074B1B689A635A6B34331140802218
:104E500052011343196003204042EDE778390020E6
:104E60002C3C0020064B10B51B68002B06D00021FF
:104E7000044A12689163044A1068984710BDC046FE
:104E8000783900202C3C00207C3900201D4BF0B5E7
:104E90001A68C64698461C4B0E00D31859424B411F
:104EA0001A4F14331C00050000B53B68002807D0DA
:104EB000002B11D0164B3D601E6080BCB846F0BD83
:104EC000002BF7D0906300212000FBF799FC200015
:104ED0001049FBF7C9FDEDE720000E49FBF7AAFCDE
:104EE00001212000FBF78CFC4346502238211B682F
:104EF0009A635A6B34331140802252011343196074
:104F0000D8E7C0462C3C00200080FCBF7839002048
:104F10007C390020654E00100C4B10B51B780C4BF3
:104F20000C4C1B780C4B022100202360FBF776FB16
:104F300002210120FBF772FBE12120684902FCF706
:104F4000BDFD01210548FFF701FF10BDC4CF0510CD
:104F5000C0CF05102C3C0020004003406011002011
:104F600070B5A0B06C4605000E0080220021200024
:104F7000FFF710FD2B6832689B001A516B6872684E
:104F80009B001A51AB68B2689B001A51EB68F2683B
:104F90009B001A512B6932699B001A5100231FAAEA
:104FA00011685B005B181100043A8C42F8D1D024E0
:104FB00001262406226901205A402B6A1340320040
:104FC000E3616B699A406261FCF7A4F96B699E40EA
:104FD000A66120B070BDC04610B5FF2484610024D6
:104FE0004360039BC4610361049B04624361059BAE
:104FF000C4624362069B04638362029C079B046055
:105000008260C160436310BDF0B54546DE46574639
:105010004E46E0B5CDB004AB98468D4F42463B00BE
:105020002033060013CB13C2012403CB03C2002399
:105030000021202214A809930A930B940C930D933A
:10504000FFF7A8FC1CAB9A463B005246169434333B
:1050500023CB23C223CB23C203CB03C2130091462D
:105060003A0023CA23C323CA23C303CA03C31D00B0
:10507000180080220021FFF78DFC33689B00EC5064
:105080009B4673689B00EC500393B3689B00EC5005
:105090000293F3689B00EC50019333699B00EC5042
:1050A000009373699B00EC5000244BAB1A686400BA
:1050B000A4181A00043B9542F8D180220021280050
:1050C000F461FFF767FC01235A46AB50039AAB50DB
:1050D000029AAB50019AAB50009AAB5000224BABF6
:1050E0001968520052181900043B8D42F8D13262FF
:1050F0002000FBF70DFBD023F2691B065A629A6170
:105100000222B36A023B934300229346002B02D152
:1051100001339B461893002441463000FFF720FFDF
:1051200041463000FFF71CFF41463000FFF718FFF3
:10513000300009A9FFF714FF102214A928002C61E0
:10514000FFF72EFC29003000FFF70AFF5B4629001D
:105150002C933000AC60FFF703FF1022514628006B
:105160002C61FFF71DFC29003000FFF7F9FE012339
:1051700029006B60AB6030009846FFF7F1FE10220B
:10518000494628002C61FFF70BFC29003000FFF78F
:10519000E7FE01230122290030002C922D93FFF716
:1051A000DFFE1C2200212800FFF7F4FB102229005B
:1051B0000EA81294FFF7F4FB30000EA9FFF7D0FE03
:1051C000434630000EA91193FFF7CAFE0A20FCF7F0
:1051D000A1F8B36999461D2B22D900222B00F26257
:1051E000326313CF13C313CF13C303CF03C32900F9
:1051F00012920EA81032FFF7D3FB30000EA9FFF772
:10520000AFFE0122012330000EA90E920F93FFF78B
:10521000A7FE4DB0F0BCBB46B246A946A046F0BDC5
:1052200018000421FBF7FAF94B461A07520F9300B6
:105230009B18084A9B009446642263441C609C604F
:10524000DC601A61FA2252015A6042461A60C4E7D1
:10525000E8A6041000000540F0B5C64600B5836A14
:1052600080460C008EB0022B38D0042B08D1012AC6
:1052700034D9013AD30F9B185B109B015C1894340E
:105280000126630933400893A30933400793E309D8
:10529000334022093240069301AD00239446290091
:1052A0000992059306AB85CB85C1634640460B60EA
:1052B0002900FFF755FEE30833400193A30833406C
:1052C0000293630833402900404626400393049626
:1052D000FFF746FE0EB080BCB846F0BD92018032AA
:1052E000A418CDE7F0B50C78070087B0002C25D0C6
:1052F00001254E1CE3090193A3092B400293630986
:105300002B40039323092B40380001A904930595F2
:10531000FFF726FEE3082B400193A3082B400293DE
:1053200063082B402C40380001A9013603930494F4
:10533000FFF716FE731E1C78002CDBD107B0F0BD02
:10534000F0B5C646022200B5836A8EB0023B934395
:10535000002501AC5A4253412200060088460693BC
:10536000099508950795059506AB83CB83C2210067
:1053700015603000FFF7F4FD210030000195029523
:1053800003950495FFF7ECFD41463000FFF7AAFFB7
:105390000EB080BCB846F0BDF0B5C646022200B5DE
:1053A000836A8EB0023B9343002601AC5A425341BC
:1053B000220005000693099608960796059606AB07
:1053C000884683CB83C2210016602800FFF7C8FD02
:1053D0000123210028000193029304930396FFF711
:1053E000BFFD41462800FFF77DFF0EB080BCB846E8
:1053F000F0BDC0460222836AF0B5C646023B934325
:105400005A425341C02200B55B4213408EB05A0647
:10541000002701ACD20F0792220005008846DB0965
:10542000069309970897059706AB43CB43C2210023
:1054300017602800FFF794FD2100280001970297CC
:1054400003970497FFF78CFD41462800FFF74AFFBA
:105450000EB080BCB846F0BD30B5416B04000B798E
:1054600087B0002B12D1154D2B78002B01D007B03F
:1054700030BD03220021FFF7EFFE20001049FFF7A7
:1054800031FF01222B7853402B70F0E7684600F083
:1054900009F9032200212000FFF7DEFE2000009919
:1054A000FFF720FF0022054B00981A7002AB9842CC
:1054B000DDD002990131FFF789FAD8E7323C0020AC
:1054C000DCA6041000230360037183607047C046AC
:1054D00008239C46F0B5DE4657464E464546844472
:1054E000E0B563460025C1B0036045600572060063
:1054F0001EA89046039314F09DFD654B0EAC2364EB
:105500000793B023E55000239B46B423E5520433B0
:10551000E5500433E5500433E5500433E5505D4B6A
:1055200000215A689B680E9292460C2252425244C5
:105530001068914620180360049314F067FD564FDD
:1055400000223B0014332364544B16A80593636078
:1055500000230E9714921593A560E560256165619F
:1055600001F05CFA4E4B5A46069363601023636267
:105570001AABA36230230FA91EA8E254E56214F00F
:1055800045FD414620001FF067FB5A460AAB98468E
:10559000089306AB1A74A2690995002A4ED02369B4
:1055A000002B01D09A4247D363690021D21A00929E
:1055B00008A8002220F07CFA30680399099A089B19
:1055C000814245D043454FD033600A9BB168726039
:1055D000B360002842D008900A9100230993037019
:1055E0000898404503D00A990131FFF7EFF9069B6F
:1055F000A06A0E97636014371AAB2764984203D0F1
:10560000216B0131FFF7E2F9059B16A8636000F0FA
:10561000C3FB53460E934B46049A1B681EA8E250E8
:10562000079B236414F042FD300041B0F0BCBB4640
:10563000B246A946A046F0BD1A00B5E718A908A8C9
:1056400020F0ECF830680399099A089B8142B9D19F
:10565000434509D033600A9B7260B36043460893A8
:105660000AAB98461800B8E7002A06D0012A09D0EC
:105670004146FFF795F9099A306800237260835418
:105680000898AAE706AB1B7C0370099A3068F4E718
:1056900034CB041020D404103CD4041094D404104F
:1056A000C0D304100823F0B5454698464E46DE4662
:1056B00057468044E0B543460026036046600672C4
:1056C0000B7904000D00B9B0002B07D1200039B0D0
:1056D000F0BCBB46B246A946A046F0BDFBF706FFAC
:1056E000FA2200239200FEF7CFF9FA212B688900F5
:1056F000C01AFEF78BF903B218003C219946FEF759
:105700005DF93C2107B24846FEF758F902A80AB2F3
:105710002900FFF7DDFE38003C21FEF74FF908A80D
:105720000AB22900FFF7D4FE3C213800FEF746F903
:10573000290002B20EA8FFF7CBFE039B14AF9A46D6
:10574000012B00D85FE116AB9946149353464846A7
:10575000029E32930F2B00D9F2E152463100FFF73F
:105760001FF90021329B149A7B60D154029804AB3C
:10577000984200D1BFE1149B4B4500D11AE2159924
:10578000169A049D029303910492002800D1BAE175
:105790001490BD6000237B6003701498484503D0CB
:1057A000B9680131FFF712F9099B1CAF99461AAE8F
:1057B0001A97012B00D844E1089B38009A464B46C3
:1057C00032AD32930F2B00D9CDE14A465146FFF757
:1057D000E7F80021329B1A9A7360D15408980AABFB
:1057E000984200D195E11A9BBB4200D1C4E11C9ABA
:1057F000089391464B461B990A9A09910A930028EF
:1058000000D18EE11A90B2600023736003701A9881
:10581000B84203D0B1680131FFF7D8F80F9E34AF1A
:105820003297012E00D829E10E9B380099462C961C
:105830000F2E00D98EE132004946FFF7B1F8002162
:105840002C9B329A6B60D1540E9810AB984200D1C9
:1058500045E1329BBB4200D19DE13399349A109EC1
:105860000E930F911092002800D140E13290AE606B
:1058700000236B6003703298B84203D0A9680131ED
:10588000FFF7A4F822AB99460F9E20930E9B329609
:105890009A460F2E00D913E1012E00D109E14B46A3
:1058A000002E00D0B9E1002221969A553A23219981
:1058B000009320A8393B20F08DF82198DA4B099A03
:1058C00008991B1A9A4200D9BFE120A820F0C2F91A
:1058D0000822924628AB269303688244060053456B
:1058E00000D176E1269383682893534633600023E2
:1058F0007168337273603A330022009326A8393BF3
:10590000279120F067F8082293462EAB2C939A46F5
:105910000368834406005B4500D168E12C938368EB
:105920002E9373682D935B4633600023736033724C
:105930002D98BD4B039A02991B1A9A4200D984E113
:105940002CA820F087F908229346329703688344F5
:1059500006005B4500D143E132938368AB60736816
:105960006B605B4633600023337220687360329B48
:10597000804500D1D9E0BB4200D13FE13399349A50
:10598000A66823606160A260002800D1D4E0329054
:10599000AE6000236B6003703298B84203D0A968F0
:1059A0000131FFF713F82C98504503D02E9901319F
:1059B000FFF70CF8269828AB984203D028990131BC
:1059C000FFF704F82098484503D022990131FEF7EB
:1059D000FDFF0E9810AB984203D010990131FEF7ED
:1059E000F5FF08980AAB984203D00A990131FEF7F7
:1059F000EDFF029804AB984200D167E604990131AB
:105A0000FEF7E4FF62E6514616AB3800013114930D
:105A100099467E603E721FF0AFFF30237968002206
:105A2000009338002F3B1FF0D5FF78687E4B039A18
:105A300002991B1A9A4200D907E1380020F00AF9AE
:105A400094E64946002330000131736033721FF041
:105A500093FF302371680022009330002F3B1FF02A
:105A6000B9FF7068704B099A08991B1A9A4200D9BD
:105A7000EBE0300020F0EEF832ADAFE60023280076
:105A80006B602B72711C1FF077FF30236968002256
:105A9000009328002F3B1FF09DFF6868624B0F9A10
:105AA0000E991B1A9A4200D9CFE0280020F0D2F8B4
:105AB000CAE66A4688211B78521813704B46F2E6F4
:105AC0000022290020A81FF05DFE329B2090229327
:105AD00032005146FEF764FF329E209BE3E6329B84
