:020000041000EA
:1000000000B5324B212058609868022188439860DF
:10001000D860186158612E4B002199600221596106
:100020000121F02299502B49196001219960352056
:1000300000F044F80222904214D00621196600F024
:1000400034F8196E01211966002018661A6600F04E
:100050002CF8196E196E196E052000F02FF8012189
:100060000842F9D1002199601B49196000215960AB
:100070001A491B48016001219960EB211966A021F2
:10008000196600F012F800219960164914480160C1
:100090000121996001BC002800D000471248134993
:1000A000086003C880F30888084703B5996A0420EC
:1000B0000142FBD001200142F8D103BD02B5186610
:1000C0001866FFF7F2FF186E186E02BD00000240BE
:1000D000000000180000070000035F00212200005C
:1000E000F4000018222000A00001001008ED00E03C
:1000F00000000000000000000000000074B24E7A12
:1001000000200420F7010010C3010010C5010010F9
:10011000C1010010C1010010C1010010C101001097
:10012000C1010010C1010010C1010010C701001081
:10013000C1010010C1010010C9010010CB01001065
:10014000CD010010CD010010CD010010CD01001037
:10015000CD010010CD010010CD010010CD01001027
:10016000CD010010CD010010CD010010CD01001017
:10017000CD010010CD010010CD010010CD01001007
:10018000CD010010CD010010CD010010CD010010F7
:10019000CD010010CD010010CD010010CD010010E7
:1001A000CD010010CD010010CD010010CD010010D7
:1001B000CD010010CD010010CD010010CD010010C7
:1001C00000BE00BE00BE00BE00BE00BEEFF3058054
:1001D000103800BEF2EB88716CD0051088D0051085
:1001E0003402001090A31AE700201F49086006C8D7
:1001F00081F3088810471D48006800282FD10DA4FE
:100200000ECC002902D000F012F8F9E71849194A7B
:10021000002000E001C19142FCD1174988471749ED
:1002200088471749884700BEFDE701C901C29A42C5
:10023000FBD3704788D00510C000002008220020A2
:10024000D0F105100000042000000420D0F10510BA
:10025000001004200010042000000000704709482E
:1002600003F0D4FA0047000008ED00E0000000D0E1
:10027000082200206C3C0020A51E00103D03001049
:10028000D51F00105756000006005250ABB3605304
:10029000C0A6041006005250861C0302D0A604100B
:1002A000060052505422A29DE0A6041005005250B0
:1002B000DE65F468D0F10510F8B5C0460648074978
:1002C000091A8B10C90FC91810B5491003D0044B77
:1002D000002B00D0984710BD0822002008220020E3
:1002E00000000000054B10B5002B03D00449054861
:1002F00000E000BFFFF7E2FF10BDC04600000000B5
:100300003C3B002008A4041010B501F013F9FA22B8
:100310000023920003F012FB064A1368C31AFA2B5B
:1003200006D90124044B19791860614019711060D5
:1003300010BDC046BC390020C8390020F8B5CE46F3
:10034000474680B5D027072000F0D4F91D4B012285
:100350000821062000F06CF91B4B012698461B4C27
:100360001B4D3F0611E02379002B0BD02800A1691B
:1003700004F060FE2800A16C04F062FE2800216BEE
:1003800004F064FE280004F067FE7B68DB091E426F
:10039000E9D001F0CFF8FA220023920003F0CEFA60
:1003A00043461B688146C31AFA2BDCD92379002BFC
:1003B000E8D00100200005F031FB43464A461A60B0
:1003C000D1E7C04609030010C0390020C839002019
:1003D000283A002010B50C4C86B0200004F098FE9E
:1003E0000423049310330393053B0293013B0193D1
:1003F000093B0093032202210594013B034804F0CA
:10040000FDFD06B010BDC046C8390020283A0020C6
:10041000D0231B061B68824A99005258F0B55746F4
:1004200092465A1E93413022DE464E4645465B4276
:100430001A4013007B4AE0B5944683B063440193AD
:10044000794B884600260F279B46F2081300019936
:1004500008339B005C5835000836002C22D001235D
:1004600099465346002B26D039002140274213D00D
:100470005B4642469A584B46AB401A420CD1072283
:1004800008002A40920090400200EB0867483C3385
:100490009B001A502800D04724090135002C01D0B8
:1004A000B542E1D3202ED0D103B0F0BCBB46B2465A
:1004B000A946A046F0BD39002140274209D00133AA
:1004C000AB409C4643465848C0586346184200D14A
:1004D0007EE02309E6D00F22110019401A420FD006
:1004E0006B1C0E3A9A40944642464F4880586246EA
:1004F000104205D1DB084D4A3C3309019B0099505D
:10050000230ACFD00F22110019401A420FD0AB1C82
:100510000E3A9A40944642464348805862461042FA
:1005200005D1DB08414A3C3309029B009950230B5B
:10053000B8D00F22110019401A4238D1230CB1D083
:100540000F22110019401A4247D1230DAAD00F22C1
:10055000110019401A4251D1230EA3D00F221100CD
:1005600019401A420FD0AB1D0E3A9A4094464246AB
:100570002D4880586246104205D1DB082B4A3C3397
:1005800009069B009950240F0735002C00D189E7FC
:1005900001234146AB40244A52581A4200D081E719
:1005A000ED08224A3C352407AD00AC507AE7EB1C3D
:1005B0000E3A9A40944642461B4880586246104282
:1005C000BCD1DB08194A3C3309039B009950B5E7BD
:1005D000164B3C329200D1507BE72B1D0E3A9A40CD
:1005E000944642461048805862461042ADD1DB081E
:1005F0000E4A3C3309049B009950A6E76B1D0E3A46
:100600009A40944642460848805862461042A3D118
:10061000DB08064A3C3309059B0099509CE7C0461D
:100620006039002000410140683B0020004001404B
:10063000F8B51D00D0231B061C680600604244412B
:100640002F20644284432748F7088446072030401F
:10065000800081403800244E3C3064448000BF005C
:100660008151E419002A11D08022920122431160A5
:100670001C681E4EA400A359002B15D0002D25D0B8
:10068000A55101210D2000F0CBF8F8BDC022920148
:10069000224311601C68154EA400A359002B0CD0F6
:1006A000002D18D0A551F0E7002DEAD000220D2032
:1006B0000F49A55100F0F8F8E3E7002DE5D000223E
:1006C0000D200B49A55100F0EFF8DEE70D20084999
:1006D00000F0DAF9D4E70D20054900F0D5F9A5516D
:1006E000D3E7C0463041014000400140603900205E
:1006F000110400100123D0228340120693629361FB
:10070000094A40219446830063441A68C0004A4065
:10071000803111408022520113431960034B9C46E3
:10072000052360444360704704C00140004001401D
:100730004021F0B5D6464F46464688468031D02502
:100740008C46C0B5BB398027002301248A46104A55
:100750002D067F01044211D0210099404646A9622E
:10076000A96111687140664631403E001643316010
:10077000084ED900B146564649440E600133400840
:1007800004321E2BE6D1E0BCBA46B146A846F0BD05
:1007900004C0014004400140024B18688007C00FAC
:1007A0007047C04600C0064070B5EFF3108C72B6BB
:1007B0000D4D2B68002BFCD0BFF35F8F0724CB08B7
:1007C000C618C05C01230C40A3401C000440034237
:1007D00007D118433070BFF35F8F2C608CF3108803
:1007E00070BD100001F016FC2C0100D00021044B5C
:1007F000044ABFF35F8F02C39342FAD17047C046E9
:10080000000100D0800100D0044A1078431CDBB204
:10081000172B00D9102313707047C046C410002056
:1008200001238340002904D0034A1360034A136064
:100830007047034A1360FBE780E200E000E100E05C
:1008400080E100E0024B10309B688000C058704788
:1008500000ED00E070B50D00EFF3108672B60F4AA0
:100860001368002BFCD0BFF35F8F0D4B10309B68DB
:1008700084001B590B4A934203D09D4201D001F0E2
:10088000E1FB074B9B681D51BFF35F8FBFF35F8F89
:100890000022024B1A6086F3108870BD240100D03C
:1008A00000ED00E0CD010010F0B54E464546DE46B5
:1008B0005746E0B583B0060000919046EFF3108BE9
:1008C00072B6654A1368002BFCD0BFF35F8F00251A
:1008D000624B5D579A46002D00DA79E052466B0074
:1008E0005F4C5F19BF000193E31999469B7910365D
:1008F00013705C4BB6009B6899590B1B2F2B33D997
:10090000594B994200D07CE0019B02379C46574BE3
:100910006544AD006353564BE719043BDB1B554A56
:100920001B055B0D651913436B80534B0121AB8095
:10093000FF23AB714346EB71009BAB604B460B430F
:100940001900484B9B689951BFF35F8FBFF35F8FCE
:100950000022414B1A608BF3108803B0F0BCBB46F9
:10096000B246A946A046F0BD01200A008243D379D1
:10097000434549D9BC464746884607E05800C01859
:1009800080002018C179B94228D902000623D35625
:10099000002BF3DA9A46131D9C464146B846374F62
:1009A000484663460438C01A0005324B400D1843D0
:1009B000019B908095715A1953469200A418A37117
:1009C00043462F4AE371009B2260A780A360B8E7EB
:1009D00001F038FB002553465D577FE79A464146B4
:1009E000131DB84667469C4690880437400500159D
:1009F000E7196044C01BE0270005400D3F02074394
:100A0000CEE701F01FFB7FE713001E491B1B5B4174
:100A10005943090D154BBD1CE353154B6519043B98
:100A20005B1B1B05134D5B0D2B43AC464D466B808A
:100A300065460437131FE719DB1B1B055B0D1D43C0
:100A40004B4699714146D97100999D8099604946FC
:100A50000B4B0143136074E7240100D06A3C002073
:100A6000C810002000ED00E0CD01001000A1FFFF44
:100A7000F810002000E0FFFF01BDFFFF01BD0000F6
:100A800001488047AAAA0000F0B5DE4657464E4608
:100A90004546E0B50C0083B0EFF3108872B65D4AAE
:100AA0001368002BFCD0BFF35F8F5B4B5B499A68E8
:100AB000030010339F00D5598D4239D0A5424AD04A
:100AC000574EAA1B2F2A33D80122924682409146C4
:100AD0004846544A1268104001904846524A1060F5
:100AE000BFF35F8FEFF305829346002A35D0934220
:100AF00001D001F0A7FA2A0053469A439068844235
:100B000008D175E04B005B189B00F3189868A04271
:100B100034D01A00062151560029F3DA844253D00A
:100B2000019B002B26D04A46404B1A603D4B1A6071
:100B3000394B9B68DD51BFF35F8FBFF35F8F00229E
:100B4000344B1A6088F3108803B0F0BCBB46B24641
:100B5000A946A046F0BD0D00EAE72A0053469A4395
:100B600090688442D6D1062010561300002809DA76
:100B70000D0031E04A462C4B1A60D9E70620185682
:100B8000002822DB42001118890074188A46A168E7
:100B90009960E179D971062161569971002925DBA7
:100BA000A488F11A6405241554440919E0240905A0
:100BB000490D24022143998013181D4A9B00117886
:100BC000F31899711070ABE713005946002914D13E
:100BD000FF3191711749918015490A789A71164A27
:100BE0009B1B5B415A43120D0A7099E71349E2E7D8
:100BF0000620105613000028C4DA114A1149D21AEF
:100C0000083A5002400D014399800F4952080A43A7
:100C1000DA8085E7240100D000ED00E0CD0100106E
:100C2000C810002000E100E080E100E080E200E088
:100C30006A3C002001BDFFFFAAAA000001BD000020
:100C40000211002000F0FFFF00F8FFFF70B5EFF386
:100C5000058101240443EFF3108C72B6214A136816
:100C6000002BFCD0BFF35F8F1F4B05001F4AED1A0E
:100C70006D416A43120D1E4D8900AE6852B276581E
:100C8000A6421CD00621595691421CD01221595619
:100C9000914222D01E215956914220D02A215956E4
:100CA0000324914210D0134B19781A708171BFF34D
:100CB0005F8F00220B4B1A608CF3108870BDAB68FD
:100CC0000D4C5C50EFE700246100091989005B18A6
:100CD000FF21997109499980E5E70124F4E702248D
:100CE000F2E7C046240100D0C8100020AAAA0000E4
:100CF00000ED00E06A3C0020CD01001001BDFFFFC7
:100D0000054B064A1360064A136053609360D36034
:100D100013615361936170478080808000E400E03C
:100D200004E400E0024B9C46614489000160704786
:100D30004000003410B50400FFF766FD01002000FC
:100D4000FFF7F0FFFF232371BFF35F8F10BDC04695
:100D500010B50400FFF758FD01002000FFF7E2FF87
:100D6000FF23A380BFF35F8F10BDC04683680B488D
:100D700010B58446614462441201090159189B1858
:100D80005C684A680120944201D802D00020C0B2B9
:100D900010BD1A680B689A42F9D8F7E7FFFFFF0FFA
:100DA0000A4B1968EFF3108072B60A68002AFCD06B
:100DB000BFF35F8F1B68BFF35F8F00221A6080F361
:100DC000108840BF002000217047C046543C0020DE
:100DD000F8B5574645464E46DE46E0B598460CAB5C
:100DE0001C780DAB1B78070091469A460568002CCD
:100DF0005AD1AC7B002C3BD0660029683619033EE3
:100E000089194B78AB73002B00D1EB7300238B70E7
:100E10004B700B702B4BE218BB6812019B184A46B3
:100E20001A6042465A600A9A9A600B9ADA60002366
:100E30008B704B700B706B7B9B46002B27D0220076
:100E40006B685946A86898475B465B005B442A6814
:100E5000033B002812D058469619B070D118D35CC5
:100E6000002B00D073705B460C706B735C450FD029
:100E7000F0BCBB46B246A946A046F8BDD3189C704C
:100E80009119925D002A00D05A705B460B706C730A
:100E90004A464346387D00F0E1FB051E0AD10E9B11
:100EA000002BE5D01D70E3E7660029683619033E84
:100EB0008919AFE75346002BF1D12100386800F0C3
:100EC000E5FDECE7FFFFFF0FF0B5DE4657464E4667
:100ED00045460023E0B58BB00893684B8200D45898
:100EE00000239B46099000F025FB02000B00606880
:100EF000EFF3108A72B6564601680029FCD0B2465C
:100F0000BFF35F8F21684F7B8C46002F2ED0A568E2
:100F10005B49A94679180901894449460868496826
:100F200005000E00AD1A9E41002E5FDD02000B0091
:100F3000099800F093FB00230022994600230692B3
:100F40000793002398466368BFF35F8F5A461A6081
:100F50008AF310884346002B12D10028C3D10BB06E
:100F6000F0BCBB46B246A946A046F0BD0023002215
:100F70009946002306920793002300209846E2E753
:100F8000089B494618023843C047626805000E00B6
:100F9000EFF3108A72B61368002BFCD0BFF35F8F9B
:100FA000002E41DB2B00334302D02369002B56D1A6
:100FB0002368D97B002905D01A68480041185218C7
:100FC000033A57709A7B002A00D19F73DF73E2685F
:100FD000013FD35D0133D3555B4623616368BFF3A3
:100FE0005F8F5A461A608AF310887CE7002E02D180
:100FF000002D00D09AE70021604600F0C5FC4B466A
:101000001A685B68069207934B469B6898464B4666
:10101000DB689946E368DB19013B1B7808931B02E8
:101020000343236100208EE72369002BC0D0069A7A
:10103000079B8021521BB34109068B4202D3012238
:10104000104B524200210491013103914946019114
:101050004146200002970091FFF7BAFEBCE700F07E
:1010600069FA2A00330012184B41802109068B428D
:10107000E8D30122034B5242E4E7C046543B002030
:10108000FFFFFF0FFFFFFF7F10B5144C6368002BBD
:1010900004D00A211248FFF745FE10BD2300114A73
:1010A0001021206800F08CFB032000F037FA0320A9
:1010B00000F03CFB03200C4900F08AFAFFF7A4FB88
:1010C0000A4B9C4603232375D0231B061B686044F0
:1010D0006375074B80006060DC60DAE71011002068
:1010E000543C00206D0D0010C90E0010400000346B
:1010F000543B0020F0B557464E464546DE46E0B527
:1011000085B0019310AB1B780600039300239A4629
:10111000984600927268EFF3108B72B61368002B3A
:10112000FCD0BFF35F8F3568AC7B002C00D16EE044
:1011300067002B683F19033FDB195A78AA73002A0E
:1011400000D1EA73484AA118B26809015218009800
:101150000199106051600E9991600F99D1604246DB
:101160009A705A701A706B7B9946002B00D16BE015
:1011700022006B684946A86898474B465B004B4481
:101180002A68033B002856D04846D719B870D118B2
:10119000D35C002B00D07B704B460C706B734C45BE
:1011A00053D0F3681B19013B18787368BFF35F8F46
:1011B00042461A608BF310885346002B08D1000278
:1011C000204305B0F0BCBB46B246A946A046F0BDE0
:1011D000039B002B46D00E9B00200F9998470300DD
:1011E0000B433FD004000D1E1ADA009A019B121B1C
:1011F000AB410092019380221206934204D3012353
:101200001A4C5B4200930194039B9A4682E77368F1
:10121000BFF35F8F1C608BF3108801204042D0E742
:1012200000F088F9802200196941120600900191AE
:101230009142E9D3E3E7D3189C70D119D25D002A1B
:1012400000D05A704B460B706C73307D009A019B36
:1012500000F004FA82460028A3D02100306800F094
:1012600015FC9EE70020ACE7FFFFFF0FFFFFFF7FAD
:10127000F0B504000D0006267642F717C64636196B
:101280006F4100B584B08F4214D811D000F052F9EC
:1012900032003B00121A8B41002B15DC002B3ED094
:1012A0002000290000F084F904B080BCB846F0BDED
:1012B0008642EBD90026002700F03CF932003B00C3
:1012C000121A8B41002BE9DD002302930193154B89
:1012D0003200009314483B00FFF70CFF0028DFDBCF
:1012E00000239846BC46114A114F7B6A9C4504D89E
:1012F000B96AB142D4D29C45D2D11168EFF31080C3
:1013000072B60B68002BFCD0BFF35F8F1368BFF37E
:101310005F8F4146196080F3108820BFE5E7002AFF
:10132000BED0D1E7A10D001010110020543C0020C8
:101330000040054070B504000D0000F0FBF880236C
:10134000001969411B06994202D30120024940421B
:10135000FFF78EFF70BDC046FFFFFF7F70B5060030
:1013600000F0E8F8FA2204000D000023300000210C
:10137000920003F093F98023001969411B069942FA
:1013800002D3012002494042FFF772FF70BDC04600
:10139000FFFFFF7FF0B5EFF30583CE46474680B5EC
:1013A00005000C0085B0002B12D02A4A0020536A99
:1013B000A34203D3926A0130AA4204D305B0C0BC51
:1013C000B946B046F0BD1B1B5A1E9341D8B2F5E793
:1013D000214E02930193214B0200009330000B0039
:1013E000FFF788FE031EE0DD20BF7168EFF3108772
:1013F00072B60A68002AFCD0BFF35F8FDAB2944657
:10140000FF2230681A40417B61450FD00168894650
:10141000510088464946904441440339897800295F
:1014200004D13269934209D1316107E0F1681B0AA6
:101430008A18013A1278DBB29A4207D07368BFF378
:101440005F8F00221A6087F31088AEE7614600F0D4
:101450001DFBF3E70040054010110020A10D001016
:10146000F0B5EFF30582D6464F4646461000C0B5AC
:101470001038EFF3108872B6214C2368002BFCD093
:10148000BFF35F8F0123190081401E4D1F00696368
:10149000AA461D4D29601D4D2E78AC463500C5402D
:1014A0002F402B4215D053465F6A194B8500EB58ED
:1014B0009F4218D36246174B8E43EB581670BFF30A
:1014C0005F8F0022226088F31088002B06D0984797
:1014D00004E0BFF35F8F276088F31088E0BCBA4652
:1014E000B146A846F0BD0C4B92009C46624413687E
:1014F0001360BFF35F8F0023236088F31088EDE74C
:10150000280100D0004005403C7005406B3C0020A5
:10151000583C002050390020D03F054010B5034B07
:1015200001001800024AFFF73FF910BD693C002096
:1015300010A40410034B596A0A00986A596A8A4237
:10154000FAD170470040054070B504000D00174AFD
:10155000536A1900966A536A8B42FAD13000190017
:1015600024184D41AB4216D813D0104B2A005B6AA9
:101570009D4203D90D494B6A9342FCD3934207D154
:101580000A4A02E0516A994202D1916AA142F9D312
:1015900070BDA642E9D9054B5B6A1C005A1CEFD00E
:1015A000012201246442E5175242E3E7004005406E
:1015B000064A536A9942FCD807D1044B02E05A6AA2
:1015C000914202D19A6A8242F9D3704700400540A5
:1015D00070B504000D00EFF3108672B61A4A136856
:1015E000002BFCD0BFF35F8F002D1BD02000FFF736
:1015F00029F9164981420AD02000FFF72BF9012171
:101600002000FFF70DF90123A340114A1360114B8D
:10161000A400E550BFF35F8F00220B4B1A6086F3E6
:10162000108870BD0121A1400A4BA200D5500A4B81
:1016300020001A788A4305491A70FFF725FA00211D
:101640002000FFF7EDF8E5E7280100D06114001055
:1016500038600540503900206B3C0020F0B54F4603
:10166000D6464646C0B507002B4C616A0D00A66AF7
:10167000616AA942FAD18B4208D805D00120E0BCAA
:10168000BA46B146A846F0BDB242F7D9EFF3108A88
:1016900072B6224801680029FCD0BFF35F8F012594
:1016A000BD401F491C4C8846097889462943C9B268
:1016B0008C46414660460870391D890065630A51B1
:1016C0001849B8004350216A0020294219D0616AA4
:1016D0000800A66A616A8142FAD18B4219D801D109
:1016E000B24216D8CC450BD00B4B1F221D625D6356
:1016F00001233A4093400C4A136043464A461A700D
:101700000120BFF35F8F0022044B1A608AF3108818
:10171000B5E70020F5E7C04600400540280100D0AD
:101720006B3C0020583C002080E200E0EFF3108C7E
:1017300072B60A490B68002BFCD0BFF35F8F012300
:101740008340074A0748136202789A430270BFF346
:101750005F8F00230B608CF310887047280100D046
:10176000004005406B3C002070B506000D001400E1
:1017700000291DD0002A12D0736880689847620043
:101780006B0012195B193168033A033B002808D03B
:101790008A189570C818CB5C002B0BD104702800F8
:1017A00070BDCB189C7088188A5C002A05D1057022
:1017B0002000F5E753700470F1E75A700570F7E701
:1017C00010B583600023CCB24373013342600473CD
:1017D0008373C4730068421C012C05D90133DBB24A
:1017E000137003329C42F9D1FF230B405A00D318E7
:1017F000C01800230338437010BDC04670B5050003
:101800000C1E07D0630001681B19033BCB185A78E4
:10181000002A01D1200070BD50008018033809183B
:1018200000204E784870210058702800FFF79CFF78
:10183000310004002800FFF7E1FF0600002C20D053
:101840000028E7D0320021006B68A8689847720032
:10185000630092191B192968033A033B002808D03A
:101860008A189470C818CB5C002B00D05370067097
:10187000D0E7CB189E7088188A5C002A00D05A7076
:1018800004703400C6E7C046F0B557464546DE460C
:101890004E46E0B50D006F0001687F19033F04005C
:1018A000C85D83B00192CA19002850D043001B18AC
:1018B000033BCB185E78B446002E1AD1019E002E51
:1018C00042D0E67B002E04D073009B19CB18033B5B
:1018D0005D70A37B002B00D1A573E57300282FD189
:1018E0000023537003B0F0BCBB46B246A946A046E5
:1018F000F0BD72006244033A8A185178884600218C
:10190000517089465970320001002000FFF72CFF0A
:1019100043468246002B07D05B0021684344033BCB
:10192000CB185A78002A16D1424651462000FFF7BC
:101930001BFF2168019BCA19002BC2D10028CFD000
:1019400043001B18033BCB1800219970C8E7019B8B
:10195000002BB6D1C4E75000801803380918487826
:10196000834648464870587041462000FFF7FCFE09
:10197000594680462000FFF741FF41460200200003
:10198000FFF7F2FE8046CFE7F0B557464546DE4604
:101990004E46E0B583B00191457B04006F000068BE
:1019A0007F19033FC15DC219002952D04B005B185B
:1019B000033BC3185E78B446002E1CD1019E002E56
:1019C00044D0E67B002E04D073009B19C318033B60
:1019D0005D70A37B002B00D1A573E573002931D185
:1019E000002328005370617303B0F0BCBB46B246BD
:1019F000A946A046F0BD72006244033A82185078AE
:101A00008046002050708146587032002000FFF759
:101A1000ABFE43468246002B07D05B00216843445F
:101A2000033BCB185A78002A17D142465146200072
:101A3000FFF79AFE019B01002068C219002BC0D15C
:101A40000029CDD04B005B18033BC31800209870D1
:101A5000C6E7019B002BB4D1C2E7500080180338C1
:101A60000918487883464846487058704146200017
:101A7000FFF77AFE594680462000FFF7BFFE414639
:101A800002002000FFF770FE8046CEE770B505002B
:101A900000292CD0437B8B422ED04C000068641868
:101AA000033C0419A278002A21D053009B18033B61
:101AB000C25CC6188A4202D11BE0002A08D053003B
:101AC0009B18033BC3185A788A42F6D162785A7041
:101AD000002301222800A3706370FFF7D5FE697B05
:101AE00002002800FFF740FE6873012000E000209C
:101AF00070BD63783370EBE701221900FFF7C4FE75
:101B0000F2E7C04610B50C2082B000F0AFF9FEF746
:101B100043FE002810D08B4B8B488B498B4A1860B2
:101B200059609860D960186159619861D9611862EB
:101B300059625A6202B010BD854CA06700F09EF950
:101B40000122844B1A60636C012BFCD10322824B6F
:101B50001A607F4A936B012BFCD1013301217F4A2C
:101B60007F480093043300F031F905237D4A009348
:101B700001217D4800F02AF97C4B5A68FF2A02D8DF
:101B8000802252005A608022734B6E4C12011A6000
:101B90002169002907D0606901F092FE01304300FD
:101BA0001B18033BFDD2E022704B714819680A40B4
:101BB000026002221968514001320A400421026089
:101BC0009A681142FCD080216A4A09011160802282
:101BD00052005A60684B2361684B5968FF2900D84E
:101BE0005A60032201215B4B1A60644A93681942D0
:101BF000FCD0E023106803406148036012680323AF
:101C00004A40022113405D4A036093681942FCD0A8
:101C100080215C4B0901196080215B4B49005160B8
:101C200063615A4B5A68FF2A00D859608022584B8A
:101C300012011A60E169002907D0606901F040FED5
:101C4000013043001B18033BFDD2E0234F4A1168CB
:101C50000B4050490B6080214F4B090119608021D6
:101C6000394B49005160E3614C4B5A68FF2A00D858
:101C7000596080224A4B12011A60216A002907D05C
:101C8000606901F01DFE013043001B18033BFDD2CB
:101C9000E023424A11680B4042490B608021424BCD
:101CA0000901196080235B0053608022264BD20219
:101CB00023623E4B5968914200D25A6080223C4BCD
:101CC00012011A60616A002907D0606901F0F8FD0D
:101CD000013043001B18033BFDD2E023334A116857
:101CE0000B4034490B608021334B0901196080237C
:101CF000DB025360154B6362304B5A68FF2A02D8EF
:101D0000802252005A6080222D4B12011A60A16974
:101D1000002907D0606901F0D3FD013043001B1892
:101D2000033BFDD2E023254A11680B4025490B6097
:101D30008021254B0901196080235B005360124B01
:101D4000A361F7E6C0240020006CDC021BB7000092
:101D5000008000403CB0004030B00040002F685987
:101D600000800240008C864700C002403080004066
:101D70003090004030A00040001BB7003C80004085
:101D80003C9000403CA00040405973075480004004
:101D900054B000405490004054A000406080004087
:101DA00060B000406090004060A000406C80004047
:101DB0006CB000406C9000406CA000404880004037
:101DC00048B000404890004048A00040F8B50400EA
:101DD00021481D0017000E0001F072FD01003800BF
:101DE00001F06EFD069B29041B0319432368002B99
:101DF00020DB1A4B1A4DE21853425A4180235B01F3
:101E00009C461203174B62441A60174B1A60170066
:101E1000AB689F43FBD1C022231D92011A432123AB
:101E20002660A06013602368002BFCDA0823E160C1
:101E30001360F8BD3F2322681340B342D9D1A36891
:101E40001B051B0D8342D4D1EE22E368D20213405E
:101E50008B42CED1EDE7C046001BB7000040FDBF6E
:101E600000C0004000E0004000F000408023024A33
:101E70009B000343D362704700800540AA23064AB3
:101E80001B0113602F230549D360054B196053686C
:101E9000002BFCDA7047C0460040024000B0FA0058
:101EA000006002402B4B2C4A70B51A602B4A2C4B19
:101EB0002C491A6014008B689C43FBD12A4D2B4E91
:101EC000B54208D2013E761BB60808CD98472300DC
:101ED0000134B342F9D1FFF715FE254A204B1A60B1
:101EE000204A9368DB43DB01DD09002BF9D1402256
:101EF000204B214E214C9A675A671A67DA66B44222
:101F000008D2236820000834002B1FD0FEF720FFE2
:101F1000B442F6D31A4C1B4EC022B168200002F026
:101F200099FCB460FEF762FCFEF7EAFEFFF7ACF83E
:101F3000154C164EB44208D2013E361BB60808CCEA
:101F400098472B0001359E42F9D170BDFEF7F2FE95
:101F5000D5E7C04600E00040BFCDFBFEFE7F3C0061
:101F600000F0004000C00040CC210020DC21002017
:101F7000FFFFFF0100F00140CC210020C421002020
:101F80000000002000ED00E0DC21002008220020FD
:101F900000BEFDE7094A03001068002805D0084983
:101FA000C3188B4207D81360704706480449C3180A
:101FB00010608B42F7D901204042F5E7B439002088
:101FC000000004206C3C00200020704701204042AB
:101FD0007047C04610B5FFF7DBFFC04630B50D00B7
:101FE00083B01900002A0BD0074B084C01920093D4
:101FF00002002B00200001F0C9FB0120FFF7C8FF01
:10200000034B1A00F1E7C04634A4041044A40410A2
:10201000ECD304100FB400B5084883B002F0CAFC3A
:10202000049B002B07D005A91800019101F0CEFBFD
:10203000034802F0BFFC0120FFF7AAFF74A40410BC
:1020400054E1041010B50148FFF7E4FF84A4041024
:102050009A4200D2885470477047C046F8B5574638
:102060004546DE464E46E0B598460A9B06009A462F
:102070000D9B0F00934615009B0710D10B9B0C9AEC
:1020800093420CD213005C460B9A9D1A5D442200C9
:102090004346013439002020B047A542F7D10B9CBC
:1020A0006319002C09D01D0053462A1B013C185D02
:1020B00039004346B047002CF6D10D9B9B070ED547
:1020C0005B46EC1A0C9BA34209D999462A00434669
:1020D000390020200134B0470135A145F6D8280049
:1020E000F0BCBB46B246A946A046F8BDF0B54F4687
:1020F0004646D646C0B584B098460EAB1B7894468B
:102100009946129B0D9C109F119E9A0724D4002E75
:102110006AD1BC4220D201221A409246202C00D122
:10212000D2E00C9A551E302201E0202C30D0013430
:102130002A55A742F9D85246002A0DD0B4420BD2F4
:102140000C9A551E3022202C02D126E0202C63D080
:1021500001342A55B442F9D1DA0634D55A0564D48B
:10216000002C5ED10F9A102A00D197E0022A00D1EC
:10217000A8E030220C9C227001244A46002A5ED13D
:102180005A0700D483E02B220C9D2A5501341CE011
:102190005246002A02D0202E3ED92024DA0614D539
:1021A0005A0512D4202F00D1A1E0202E3DD12026A7
:1021B0001F2234000F9D102D00D18BE0022D52D034
:1021C00030250C9FBD54202CD7D103930C9B624625
:1021D0000093029643460194FFF740FF04B0E0BC31
:1021E000BA46B146A846F0BD012215001D40AA46D8
:1021F0001A4229D04A46002A39D10C321A4236D125
:10220000BC429BD2202C00D08BE710221A40202EFB
:10221000C3D8002AA2D1D8E72024DA06D5D55A059A
:1022200003D4A74225D0B44223D00F9A102A25D038
:10223000022A14D0202CC8D022000134C0E72D225D
:102240000C9D2A550134C0E7BC4200D384E7202C02
:1022500000D066E710221A40002AE0D1B5E7202C12
:10226000B3D02200013462250C9FBD54E2E7013E49
:10227000C6E7621E012C00D174E79BE79A0616D4CC
:10228000202CA2D078220C9D2A550134D2E71A07BF
:102290009BD520220C9D2A55013496E79A060FD42F
:1022A00078220C9C227030226270022465E7202C78
:1022B00000D18AE758250C9A121915700134B9E734
:1022C0005822EEE76222ECE7102255461A40002D14
:1022D0009FD1C1E7023C9D0604D478250C9F3D5553
:1022E0001400A9E758250C9F3D551400A4E71F22B0
:1022F00060E7C04610B5002800D110BD02F00EFB0B
:10230000FBE7C046F0B557464E464546DE46E0B5CB
:1023100099B08246894690460893229A239B1000E2
:10232000190001F09EFD002800D0CDE022982399ED
:102330000122D94B524201F08FFD002800D0C3E0AA
:10234000229823990122D54B524201F06FFD0028BB
:1023500000D0B9E0229823990022002301F066FD05
:10236000002800D0F1E1229E239F8023269ADB00E3
:102370001A400D92269A1A4201D1062324938023F3
:10238000269A1B011A403B0093460996334300D01E
:10239000B3E0002A00D0C2E1002300240A930B948A
:1023A000002304250993259B0024AB4200D95C1B24
:1023B0000223269A1A400C92269A134203D06B42AB
:1023C0006B415B421C40099B002B07D00A9A0B9B78
:1023D0003000390001F0C1FC06000F00229823995B
:1023E0000022002301F022FD002803D080210906ED
:1023F0007B181F00269AAA4B009601971340089E4F
:102400000493249B0394029342463300494650466A
:1024100000F0AAF90400002D67D02020269A494632
:10242000024013005A4253415B42621C18400A9218
:10243000330022004530D047099A6F1ED317D418B5
:102440005C40D30F9B46002501E0202D13D008AA45
:1024500094461F23200063440A2101355E1901F0D0
:102460002FFA3031317020000A2101F029FA2600BC
:102470000400092EE9D805230693002304930A33A8
:1024800003935B46089E029310AB0A9A0093494659
:102490003300504605970195FFF728FE0C9A04007B
:1024A000002A22D04246851A259AAA421DD9B04652
:1024B0005746160022004346494620200135B847BA
:1024C0000134AE42F6D810E0269B42460493259B89
:1024D00049460393249B50460293229B239C0093DE
:1024E0000194089B00F040F90400200019B0F0BCF2
:1024F000BB46B246A946A046F0BD6A4B78009C4652
:10250000400D604401F0C0FC674A684B01F043FC99
:10251000674A684B01F018FC674A3B031B0B1A43E0
:1025200004000D0009981100644B002201F003FC27
:10253000634A644B01F02FFC02000B0020002900CD
:1025400001F002FC01F0B8FC099001F09DFC5E4A2C
:102550005E4B04000D0001F01EFC00225C4B01F0FC
:10256000F3FB01F0A9FC5B4A5B4B29000C902000B7
:1025700001F011FC04000C980D0001F085FC574A95
:10258000574B01F008FC02000B002000290001F06D
:10259000D2FB04000D0002000B000A940B9501F021
:1025A000FAFB04000D000A980B9902000B0001F0E1
:1025B000CBFB00220E900F914A4B2000290001F026
:1025C000CCFB0022484B01F0BFFB02000B002000B7
:1025D000290001F0C2FB0022444B01F0B5FB0200D0
:1025E0000B002000290001F0B8FB0A9A0B9B0D009C
:1025F00080210400C905002001F09DFB02000B00B2
:102600002000290001F0A0FB02000B000E980F999A
:1026100001F0A3FB0022284B01F096FB344B0C9CED
:102620009C4664442305002201F0B5FB04000D0024
:1026300002000B00300039000A940B9501F0F6FB04
:1026400000285DD123002A00C625099963318D42F7
:10265000AD4159466D420435002900D1A3E613432C
:1026600063D030003900234A234B01F0EDFB0028F2
:1026700007D0002230003900204B01F0D7FB0028A2
:1026800053D1249B002B00D18DE60D9B5A1E934104
:10269000249AD31A249386E6FFFFEF7FFFFFEFFF14
:1026A000FFF7FFFF01FCFFFFFB799F501344D33F6F
:1026B000B3C8608B288AC63F0000F03F0000F83F97
:1026C00061436F63A787D23F71A379094F930A4093
:1026D0000000E03F1655B5BBB16B0240EF39FAFE82
:1026E000422EE63F00002C4000002440000018402D
:1026F000FF0300002D431CEBE2361A3F80842E417D
:10270000099B0022013B09932000164B290001F090
:1027100024FB0A00010003000A910B9294E70023B6
:1027200000240A930B9400230993249A099B9A424C
:1027300014DDD31A013B24938023269ADB001A432D
:1027400000230025269209932DE680221206944646
:10275000229B1E00239B63441F0006E60023249354
:10276000EAE7C04600002440F0B54546DE464E4646
:102770005746E0B595B08B46904699461E9A1F9BEA
:102780000A9019001000209D01F06BFB002800D07A
:10279000B0E11E981F990122C74B524201F046FB3F
:1027A000002800D037E11E981F990122C34B5242E6
:1027B00001F052FB002800D0A7E01E981F990022CC
:1027C000BF4B01F049FB002800D088E01E981F99FC
:1027D0000022BC4B01F02AFB002800D07FE01E98AD
:1027E0001F990022002301F021FB002800D0FAE00D
:1027F00000230B938023229C229ADB001C401A4268
:1028000000D102E1092D00D87EE106A98C462C00FA
:10281000172200233021093C62440133D154EF1ABE
:10282000202B00D132E1A342F7D10022A44B069223
:1028300007931E981F9901F03FFB050001F024FB50
:1028400002000B001E981F9901F075FA069A079B6B
:1028500001F0A1FA0890099101F052FB060001F085
:102860000FFB02000B000898099901F064FA00229E
:10287000954B0890099101F0EFFA002800D1D2E0C1
:102880000136300001F0FCFA069A079B01F0DCFAF1
:10289000002801D000260135AA46002F00D098E07C
:1028A000280001F0F1FA02000B001E981F9901F0B8
:1028B00042FA854B002206000F0001F0B7FA0CAB7C
:1028C0009A46002845D10022300039007E4B01F0A5
:1028D000C3FA00283DD1EB073BD5013539E0229BF7
:1028E00042460493219B594603930A981E9B1F9CC2
:1028F0000295009301944B46FFF704FD15B0F0BC20
:10290000BB46B246A946A046F0BD229B5B0767D4F2
:1029100003226E4B22990192039121990291009317
:1029200042464B4659460A98FFF798FBE6E706AA47
:1029300094461723280063440A2101341E1900F02D
:1029400097FF3031280031700A2100F091FF051EF9
:1029500076D0202CEBD10323229A1340012B1DD1DA
:10296000219B002B1AD00B9B002B00D0BBE0229A9E
:102970000C33134200D0B6E0219BA34200D887E07D
:1029800006AB9C4617223023624404E021990134AF
:1029900013558C4259D0202CF8D12024229B01942D
:1029A0000393219B02935346B9E706AA9446172343
:1029B0000A216344300001341D1900F081FF3031D9
:1029C000297030000A21013F00F07AFF092E46D914
:1029D0000600202CE9D155460CAB20249A46B8E7D6
:1029E00004223B4B96E71E9A1F9B0020002101F01A
:1029F000A2F901230B938023229C229ADB001E90D4
:102A00001F911C401A4200D0FCE60022314B0627E1
:102A1000069207930DE7229B0393219B02930423C5
:102A200001932D4B7BE7002208980999264B01F072
:102A3000FDF9002800D02FE7002E4FD101362BE7FB
:102A40000323229A1340012B68D0202CA6D00B9B85
:102A5000002B1FD02D235246135501349EE75546B7
:102A6000202CB9D030223B19002F4BD0172006A9BB
:102A7000013409180A55202CAED09C42F6D10CAA7C
:102A800092462E2251465C1CCA5462E72024CCE6B2
:102A9000202C83D0229B5B0708D4229B1B0700D4E9
:102AA0007CE7202352461355013477E72B23524607
:102AB0001355013472E7C046FFFFEFFFFFFFEF7FC2
:102AC00065CDCD4165CDCDC10000E03F98A4041097
:102AD00090A4041080842E41A0A40410F30700D415
:102AE000DAE60136D8E6219B013B2193A34200D9C7
:102AF00046E7AAE7229B0393219B029303230193BA
:102B0000084B0CE72300BAE7074BEA009B185C6808
:102B10001B682F000693079400248AE6219B002B54
:102B200093D020E79CA4041048A60410F0B54546B5
:102B3000DE4657464E46E0B5A1B01D002A9B9046A2
:102B40000B93D04AD04B83468A461A60002900D1A5
:102B5000A4E1002328789946002800D1A6E1CB4BB8
:102B60005E460993CA4B4C46D34647460D930AE04E
:102B7000631C984622003B005946B04744462878DB
:102B8000002800D1CDE001352528F1D108239A464F
:102B9000043B9946023B9846013B00229C460C941C
:102BA0002878691C0300203BDBB2102B03D8099C5A
:102BB0009B00E3589F460300303B0C9C0A92092B74
:102BC0007FD9002398462A2800D1C1E000239A46E5
:102BD0002E2800D190E00300683BDBB2122B1ED8F8
:102BE000AC4A9B00D3589F4663460D001A43D7E773
:102BF00043460D001A43D3E74B460D001A43CFE777
:102C000010230D001A43CBE753460D001A43C7E7C4
:102C100080235B000A9A68781A430A9201310D00FA
:102C200067280AD82428A3D90300253BDBB2422B0E
:102C30009ED80D9A9B00D3589F4601006939C9B2AE
:102C40000F2995D801238B409C46934B99466346A8
:102C50004A4613400C9362464B461A4200D05EE24D
:102C60000A2900D124E1072982D10B9B02CB984687
:102C7000002900D19BE121200A9A0243914610AB22
:102C80009C461F220F23404662440B959C46A0465B
:102C900015000C9B0A9002E0202B0CD0110064461A
:102CA0000C4020003730092C00D807380133E85495
:102CB0000A090F29F0D80C930A9B44460B9D9846AD
:102CC00085E1002398460A9B45469C4600E0013179
:102CD000AB005B195B001D180878303D0300303BEA
:102CE000092BF4D963460A930023A8469A460D009F
:102CF00001312E2800D06EE780200A9AC0000243DE
:102D00000A9230225242944668780B00844462460C
:102D1000092A00D82EE12A2800D13DE10D00013119
:102D200059E7DA46A146B346B846C84503D8012359
:102D30005B424344994643464A4651460020D847A1
:102D4000200021B0F0BCBB46B246A946A046F0BD6B
:102D50000B9B04CB9046002A04DB68780B930D0094
:102D6000013133E70A9A283802430A924246524216
:102D7000687890460D000B93013127E7672800D152
:102D8000C7E1472800D114E2452800D116E20A9A8B
:102D90000721049242460B9B0392073352468B4312
:102DA000190002920CC93000009201930B9122008D
:102DB0003B005946FFF7A6FA0400E0E680239B009B
:102DC00028E76878682800D11BE280230A9A01313D
:102DD0001A430A9223E768786C2800D109E280231D
:102DE0000A9A5B001A430A92013118E7462800D17B
:102DF0008AE10A9A0721049242460B9B0392073309
:102E000052468B43190002920CC930000092019384
:102E10000B9122003B005946FFF7A6FC0400AEE6EA
:102E2000631C984622003B0059462520B047444683
:102E3000A5E60B9B04330C93631C99460A9B9A07E7
:102E400000D4E7E10B9B2200187859463B00B047BD
:102E500043464444012B00D8B8E22B00B846250075
:102E60005F464C46994622004346013439002020F3
:102E7000B047AC42F7D12C00BB464D4647460C9BB1
:102E80000B937CE62D2B0010C4390020A8A404105D
:102E900038A50410ECA4041041900000DC4B287805
:102EA0009B4600239946002800D058E600243CE7C2
:102EB0000B9B02CB12930B789C4618005346002BB9
:102EC00000D09CE0002812D002235B4201339946D7
:102ED00089444A460B008946110001E08B4203D029
:102EE0005A780133002AF9D149465B1A0C938023A2
:102EF000DB0099460A9A13400B934B461A4204D0C2
:102F00000C9B534501D953460C93022399460A9AC8
:102F100013400A934B46134200D1B5E16346002BA0
:102F200000D197E10B9B002B00D14CE1D1460B1B4C
:102F30009A462B00A1444D462200B9465F469B4667
:102F400009E04B463900541CB0475346185D002831
:102F500000D158E122009542F3D15B46BB464F4673
:102F6000A9461D004C460A9B002B00D072E1129B23
:102F70000B9304E655460A9AA90049194900013302
:102F80000D181878303D010030390929F4D9AA46C6
:102F90000A921D00591C1EE60B9BA87804CB023533
:102FA000D143C9170A4092460B93691C13E60A9B4A
:102FB00010211A008A4310001131084381468020F5
:102FC0001A00C00002401100034200D157E64B46F0
:102FD0000822069353460592083203920022049376
:102FE0000C9B0292019318AB2200009359463B00C0
:102FF0003000FFF77BF8434604000B93BFE5002841
:1030000000D174E75346013B60E7622800D1DFE15D
:10301000582800D1ECE10A9980230A00DB001A400D
:1030200010000A00194200D1BDE111239A430C920D
:103030000C9A802311009B0019408C461A4200D044
:1030400046E1802311005B00194089460B99043149
:103050000A911A4200D08FE213005B0600D59EE170
:1030600013001B0600D426E30B9B00229B5ED9179E
:103070005A184A4092B2D90F0B91002B00D177E237
:10308000100010AA944642461F23129252466344EF
:10309000AA4614944D460400B946B0461F00139248
:1030A00001E0202D0FD020000A2100F009FC01359D
:1030B0007E193031317020000A2100F001FC260019
:1030C0000400092EEDD8129B46469846139B4F46A6
:1030D000A94655469A46149C0C9B06934346059375
:1030E000534604930A2303930B9B02934B4601938D
:1030F00018AB2200009359463B003000FEF7F6FF64
:103100000A9B04000B933AE520230A9A1A430A9279
:103110006FE680230A9A1B011A430A9237E6782841
:1031200000D0AFE10A9880230200DB001A401100B2
:103130000200184200D1D0E20D239A43100003335D
:103140000A93802302009B001A409446184200D044
:10315000ACE1802302005B001A4091460B9A0432D6
:103160000C92184200D04AE2430600D493E20B9B33
:103170001B780893002B00D04BE1103398430029B3
:1031800000D146E1002399464346059353460493F4
:103190000A9B06900393002302934B46019318ABBE
:1031A0002200009359463B003000FEF79FFF0400C9
:1031B00065E680230A9A1B011A430A9220230A9A81
:1031C0001A430A92E3E50B1B9A460C9B99462B0087
:1031D0005D469B4622003B002900B0475346013420
:1031E000185D0028F6D14B460C935B46AB461D009C
:1031F000B9E6C0239B000A9AA8781A430A92E91CF0
:103200000DE5C023F7E75D46BB464F46ABE6C0463B
:10321000592000104346012B00D8D1E0631E4344DF
:10322000B9461D005F46A2468B4622004B4601343C
:1032300039002020B047AC42F7D15D46BB464F462F
:10324000A14654460B9B4A46187859463B004444D5
:10325000B04714E60C9BA146984500D887E6444445
:10326000E41A2B00B84625005F464C4699462200DA
:103270004346013439002020B047AC42F7D12C003E
:10328000BB464D46474672E60C98804500D81CE286
:1032900043461A19131A99462B004D46B9465F4604
:1032A0009B460C9122004B46013439002020B04748
:1032B000AC42F7D143460C9901330C930B785D4631
:1032C0009C46BB464F466046002800D02AE64EE6A4
:1032D00007220B9B07339343013294469C4462467A
:1032E0000B920CCBD90F0A91110019435FD0D9175B
:1032F0001191109151400E91119959400F910E98D2
:103300000F99109A119B801A99410E900F9110AA53
:103310000023944642469946129252461F33634414
:10332000B046AA464E461494B9460E9C0F9D1F0007
:10333000139201E0202E10D0200029000A22002341
:1033400000F0FCFA013630322B00BA550D00220095
:103350000400002BEED1092AECD8129B4F46B1464F
:1033600046469846139B0E940F9555469A46149CD4
:103370000C9B069343460593534604930A230393F9
:103380000A9B02934B46019318AB220000935946C7
:103390003B003000FEF7AAFE0400FFF7F0FB0B9B9A
:1033A0001B781A0067E610239A430C9240E600232C
:1033B00099460028DCD1002200230E920F93A6E745
:1033C0000B9B2200187859463B00B0474C4656E507
:1033D0000A9880230200DB001A401100184200D135
:1033E0005FE102000D239A430B3B10000A93A8E60D
:1033F0000A9880230200DB001A40110002001842E4
:1034000000D166E10D2320209A43033310430A9331
:1034100097E66123820600D54123DBB20A3B0B937A
:10342000434610A91F228C46129353466244AA4673
:10343000149415974C468046B14617000A9E089D85
:10344000139308E03033DBB201343B55B5420ED361
:10345000202C0CD005003100280000F031FACBB24E
:103460000929EFD90B9A94466344DBB2ECE7129B2F
:1034700040469846139B4E465546A1469A46149C94
:10348000159F81E66F2800D037E10A990C230A00C6
:103490009A43802310000A00DB001A4011000A9AA8
:1034A0001A4200D021E108230A934AE60B9AFA3B1C
:1034B000FF3B07329A4301339C46944463460B9387
:1034C000136852680893134312921A1E05D1002301
:1034D000103299469043002941D16122810600D5DE
:1034E0004122D2B20A3A0C924246002310A913920A
:1034F00052468C46994614921F330A9A6344AA4650
:10350000159417964C469046B946089E1F00129D8A
:1035100016900AE03032D2B2002301343A55AB4261
:1035200011D0202C11D006000D004246002330009F
:10353000290000F003FAD2B2092AEBD90C9B9C4671
:103540006244D2B2E8E7B045EBD9139B55469846A2
:10355000149B4F469A46A1461698179E159C4346C3
:103560000593534604930A9B06900393002308E7B0
:10357000002800D0B0E584E50B9B1B68DA0F110032
:10358000002B00D194E0DA179818504010AA914609
:1035900042461F23129252464B44A046AA46149715
:1035A0000400B14665461F000B91139201E0202DE7
:1035B0000FD020000A2100F083F901357E19303147
:1035C000317020000A2100F07BF926000400092E4A
:1035D000EDD8129B444698460B9BAC461900139BB2
:1035E00055464E469A46149F0C9B029106934346BD
:1035F0000593534604930A230393634677E50B9B95
:103600001B680893002B03D110339843002937D14E
:103610006123820600D54123DBB20A3B0B9343466C
:1036200010A989461F22129353464A44AA46B1461E
:1036300014941597644680461700089D0A9E1393BC
:1036400008E03033DBB201343B55B5420ED3202CB9
:103650000CD005003100280000F032F9CBB2092966
:10366000EFD90B9A94466344DBB2ECE7129B4046D9
:103670009846139B55464E469A46A446159F149C61
:1036800043460593534604930A9B069003930023F5
:103690000293634682E5030613D50B9B1B880893B0
:1036A00068E502000C239A430A3B10000A9348E5A0
:1036B000002899D16AE70B9B1B68D9175A184A4012
:1036C000D9E40B9B1B68089354E5030001330C936A
:1036D000F9E520230A9A1A430A920C230A9A002138
:1036E0009A43043310000A932BE50A9B0C9308239A
:1036F0000A930D230C98984323E510230A9A9A43C2
:103700000C9269280AD10A9980230A00DB001A402A
:1037100010000A00194200D18AE486E40A991C23A9
:103720000A009A43802310000A00DB001A401100AF
:103730000A9A1A4202D10A230A9302E50A230A933B
:10374000D7E7C0460EB4012230B584B007AC08CC30
:10375000064D01000094280052420394FFF7E6F959
:1037600004B030BC08BC03B01847C046512000105C
:1037700010B5054C82B0009313000A000100200030
:10378000FFF7D4F902B010BD512000100FB430B5CE
:103790000C4985B008AA08CA0D680392002D0CD008
:1037A00000920122084C5242200002A9A8470120A1
:1037B00005B030BC08BC04B01847180001F0FAF896
:1037C0000020F5E7C4390020F522001010B5094AA1
:1037D0000300146884B0002C08D001220091064830
:1037E000524203A9A047012004B010BD01F0E2F845
:1037F0000020F9E7C4390020F52200100148042117
:10380000014B1847401100202D380010142310B52B
:103810000100188804331B88984710BD162310B583
:103820000100188802331B88984710BDF8B5474639
:10383000CE4680B50F1E19D01423994604330400D8
:103840000025012698464B461888434621681B8868
:10385000984701C4431E9841013540420640AF429B
:10386000F1D13000C0BCB946B046F8BD0126F8E73A
:10387000124A936F9B0815D29066D166002905D035
:10388000FFE7FFE7FFE7516F106F704704B5802136
:103890000906C2175140002800D0C84346F06CFD0D
:1038A000002104BDF0B5146E556E576F166FFFF70B
:1038B000E3FF1466556657671667F0BD000000D039
:1038C000114A936F9B0813D210665166002905D0E8
:1038D000FFE7FFE7FFE7516F106F704704B500285F
:1038E00001D00020C04346F047FD002104BDC04682
:1038F000F0B5146E556E576F166FFFF7E5FF14663F
:10390000556657671667F0BD000000D094464A4AD6
:10391000926F9208624601D228E0C046F0B5464E4A
:10392000346E756E776F366F00F020F89446424A19
:1039300014665566576716676246F0BD94463E4A60
:10394000926F9208624601D254E0C046F0B53A4EFA
:10395000346E756E776F366F00F04CF89446364AC9
:1039600014665566576716676246F0BD002B24DB68
:1039700011D000293EDA00B5C943404200D10131DF
:1039800000F038F8C943404200D10131DB435242D4
:1039900000D1013300BD002AEBD1002801D100295C
:1039A00005D00020C90FC90701D1C043410800B5A7
:1039B00046F0BAFC0022002300BD00B500290ADB56
:1039C000DB43524200D1013300F014F8C9434042B6
:1039D00000D1013100BDC943404200D10131DB4378
:1039E000524200D1013300F005F8DB43524200D1CE
:1039F000013300BD002923D1002B18D1002A0CD09F
:103A0000BC460D4F38667A6600210023FFE7FFE7CA
:103A1000FFE77A6F386F67467047002801D0074884
:103A2000010000B546F080FC0022002300BD02002A
:103A30000B00002000217047000000D0FFFFFFFFB7
:103A4000002B00D0BFE0130C28D1002AE7D080B4AF
:103A5000114F39667A66FFE7FFE730B4040C7B6FDD
:103A6000396F1B0423433B667A66FFE7FFE7FFE7F6
:103A7000C04684B27B6F3D6F1B0423433B667A666E
:103A8000FFE7FFE7C04600232C042D0C7A6F386F48
:103A900000196941B0BC7047000000D0F0B59446F1
:103AA0000025140E01D112020835140F01D11201A4
:103AB0000435940F01D192000235D40F01D1520088
:103AC0000135D40B0134254F7C66254C3C660E0C29
:103AD00093B2FFE7FFE7FFE73C6F6643360C7703DF
:103AE000BE467343DF0B5B04C01AB941130C73432A
:103AF000DB18C91ACE086643360CB64493B273433A
:103B00001F0F1B01C01AB941130C73431F0B1B0578
:103B1000C01AB941860D8F023E436643360C092D0B
:103B200024DB520A7243801A7703460A6643360C36
:103B300016235B1BDE40DF40BF1964466643821BD1
:103B40007046043506330100D940A840C01900D39F
:103B50000131A24206D20023F0BD0000000000D0D7
:103B6000FFFFFFFF121B0130F3D3F1E709277F1B93
:103B7000FE406446A2B27243801A00D20139220C80
:103B80007243130C1204821A99410B0070460435DB
:103B900013370100F940A840801900D30131002BF0
:103BA00002D1A2420AD2F0BD013000D30131121B72
:103BB000FAD2013BF8D1A24200D2F0BD013000D3CD
:103BC0000131121BF7E7F0B51C0C00D080E00CB4FB
:103BD00000251C0A04D11B02160E334312020835BD
:103BE0001C0B04D11B01160F3343120104359C0B2F
:103BF00004D19B00960F334392000235DC0B02D1B7
:103C000092185B4101351C00971864410134464FFE
:103C10007C66464C3C660E0CFFE7FFE7FFE7C046BC
:103C20003C6F6643360C7703BE4697B27743C01BA2
:103C300000D20139C01B00D201399FB27743C91BA2
:103C4000C91B170C77437E04FF0B801BB941CE08BC
:103C50006643360C0C2D33DBB644120B1F053A437A
:103C60001B0B97B27743C01B00D201399FB2774339
:103C7000C91B170C77433E043F0C801BB941860DCE
:103C80008F023E43664329277F1BFE400C3D77464B
:103C9000AF40BF1930BCA2B2ABB272437343801ABB
:103CA0009941220C7243130C1204801A99410200AC
:103CB0000B000137001BA941F9D2781E0021F0BD8D
:103CC0000C277F1BFE4077467F0BAF40FF19E0E7D4
:103CD00000245D1C07D0144F7D663966FFE7FFE7BF
:103CE000FFE7FFE73C6F95B29EB265436643401B1A
:103CF000B141150C1E0C6543664336042F0C3E4340
:103D00002D04401BB141994204D202000B00200057
:103D10000021F0BD01D19042F7D3801A99410134BE
:103D20009942F2D3F6E70000000000D0FFFFFFFF4A
:103D300048404140484018B41B4B5B68FC46019327
:103D400008BD04DF6B40001018B4174B1B68FC461D
:103D5000019308BD00DF754000109446134A926F2E
:103D6000920809D2624618B40F4BDB68FC460193F7
:103D700008BD0CDF2D4300100C4AF0B5146E556ED3
:103D8000576F166F6246FFF7EEFF084A14665566D6
:103D900057671667F0BD18B4034B9B68FC46019348
:103DA00008BD08DFD1410010E8250020000000D048
:103DB000FFB550404240504059404B40594000E010
:103DC000FFB5154F4C00640D03D0BC4204D10C0369
:103DD00014D80020090D09055C00640D03D0BC4215
:103DE00004D11C030AD800221B0D1B0501264B40E1
:103DF00009D44B4003D58B4200D18242FFBD99428A
:103E0000FCD19042FFBD0B43DB1803431343F5D0B5
:103E1000C9434918FFBD0000FF07000000B5FFF7C8
:103E2000CFFF01D0002000BD012000BD00B5FFF78D
:103E3000C7FF804100BDC04600B5FFF7C1FF01D9F3
:103E4000002000BD012000BD00B5FFF7B1FF01D982
:103E5000002000BD012000BD00B5FFF7A9FF804193
:103E600000BD012040054A00121804D85A0012185B
:103E700001D80020704701207047002070470000E3
:103E80000021002805D17047C1174840401AFAD0D8
:103E9000C90713B5064B1B6898470CBC441CA240CD
:103EA0001005120B0349091B09051943114310BDE5
:103EB000503C00201F04000010B54C00620D802310
:103EC000D218DB00D21A5B057E2A10DD9E3A13DA87
:103ED000CC170903490819435242D1406400013408
:103EE0001532202A05DAD0400843604310BD002077
:103EF00010BD0846604310BDC80FC018013810BD82
:103F000018B4044B5B6AFC46019308BD24DFDD4412
:103F100000100000E825002018B4044BDB6DFC46BF
:103F2000019308BD5CDFE94500100000E825002092
:103F3000C94211D300B549004908002200F018F821
:103F4000002904D4002240428A41114600BD80214C
:103F50000906002000BD000018B4044BDB6EFC46CF
:103F6000019308BD6CDFEB4400100000E825002041
:103F700018B4044B9B6FFC46019308BD78DF0745DE
:103F800000100000E825002018B4044BDB6FFC464D
:103F9000019308BD7CDF754500100000E825002076
:103FA000132370B51D78012D15D010DD1D48FFF7C6
:103FB00035FC1D4C01008022200000F04BFC022D3E
:103FC0002DD01A48FFF722FC194B186070BD194B11
:103FD000154CA364F5E7174B134C23606360A36093
:103FE000E36023616361A361E36123626362A362AF
:103FF000E36223636363A363E36323646364A3648F
:10400000E36423656365A365E36523666366A3666E
:10401000E36623676367A367E367A364D1E7054BA0
:10402000A364CEE753440000E82500204C33000091
:10403000503C00203940001007B5604601880A0A4C
:104040000230DF2AFAD1C9B2820804D3028840883C
:104050000004104300E00068014A5050039007BD7F
:10406000E82500200FB403BC0CBCF0B50124E40724
:10407000634000E0F0B50C0DCF0F661E3605891BBE
:10408000640503D3C943404200D30131640D03D01A
:10409000661CF60A07D0E41B00207F00791C890704
:1040A0008912803C24031D0DDF0F6E1E36059B1BFD
:1040B0006D0503D3DB43524200D301336D0D03D0B2
:1040C0006E1CF60A07D0ED1B00227F007B1C9B07AD
:1040D0009B12803D2D032F1B661B58D4A446202E17
:1040E00046DA20371400BC401D00BD40F240334189
:1040F0002A4380185941CB0F05D0C943C043002241
:1041000064425041514162464D0D28D10D0D07D1F9
:1041100000281FD0241940414941013A0D0DF9D022
:10412000640006D3013000D30131002C01D14008D6
:104130004000013A0BD4941CE40A04D11205114446
:10414000DB071944F0BDD907204B194300E0D9071C
:104150000020F0BD0029DDD1002CDBD1F0BD013203
:10416000C6074008CD0728434908002EE1D0D9E70B
:104170003C2E29DA203E40371400BC4000D00124F8
:10418000F24014431A00BB401C43D317ACE7AC46C3
:10419000202F08DA20360400B4400D00B540F84066
:1041A00039412843A5E73C2F0CDA203F4036040074
:1041B000B44000D00124F84004430800B1400C434F
:1041C000C117EAE710001900002494E70000F07F0F
:1041D000F0B50C0D661E3605891BE60A6405640DF4
:1041E00002D0651CED0A04D0002001210905803CA5
:1041F0002403A4461C0D671E3F05DB1BE70A64056C
:10420000640D02D0651CED0A04D0002201231B05B9
:10421000803C24037740644497B484B296B27443DC
:10422000070C7E43150C6F4380B26843361802D3E7
:10423000012000043F183004350C00197D418446EC
:1042400088B29AB250430C0C62431F0C7C438EB26E
:104250007E43921902D301263604A4191604170CC2
:104260003618674101BC81B29AB25143040C6243D3
:104270001B0C5C4380B25843121802D30120000487
:1042800024181004130C401863412D185E410020BF
:10429000474106BC88B293B258430C0C6343120CDE
:1042A000544389B251435B1802D3012109046418B5
:1042B00019041A0C091862416D1856410020474133
:1042C00018BCF902720D1143F0026A0D1043ED02A1
:1042D0000A0D03D16D1940414941013B124E9B1B10
:1042E0007600B3420ED26D0007D301300026714133
:1042F0006646354301D1400840001B05C918E40754
:104300002144F0BD0BDA013306D1013004D1013173
:104310004F0D01D04908F2E7E1070020F0BD01365A
:1043200031050020EBE70000FF030000F0B51C0D95
:10433000671E3F05DB1BE70A6405640D02D0661C9F
:10434000F60A04D0002201231B05803C2403D0255B
:104350002D060026F6432E661E096E66CE0FF61950
:10436000B44649004F0D02D07E1CF60A03D000204F
:104370000021403F3F033E1BB600B444013F7F0590
:10438000C91B49082E6F013676089C02950D2543FE
:104390007543ED137543AD1301356D10F603761BB0
:1043A0000CB4CC02450D2C43A2B2B3B25A43270C35
:1043B0007B43350C6F43A4B26C431B1902D3012419
:1043C00024043F191C041D0CA4187D4124196D41BF
:1043D000009A91B2ACB26143170C7C432B0C5F4343
:1043E00092B25A43A41802D301221204BF18220425
:1043F000230C52187B41019C6C431B19520ED901AE
:104400000A434401A01A81B2B2B2514303145A4381
:10441000360C734387B27743D617D21900277E41F3
:1044200036049B191704160C7F185E417316ED189D
:10443000F301002680337541A90F06D16400690A93
:10444000E8055B0A184309D22FE004229444803324
:104450007541A90AA8059B0A184326D34041494142
:104460002404009A019B0D005543641B4343E41A46
:1044700095B286B27543170C7E43030C5F4392B22C
:104480005A43B61802D301221204BF183204330C67
:1044900052197B4152429C41002C02D4002201302F
:1044A00051414008CA071043490802B06246D70785
:1044B0009210084BD218084B9A4203D21205891861
:1044C000C919F0BD0020002A01DC3900F0BD01331C
:1044D0001905F5E7FD030000FE070000002200B506
:1044E000203200F010F8080000BD002200B500F0F6
:1044F0000CF8CA179A4200D100BDD8430121C90760
:10450000414000BD00220B150AD410B5944600F0BE
:10451000A7F81414013400DA0021CB17144C2047FB
:104520000020002170476244343A0CD40C2A07DA88
:1045300004009140904052422032D440214310BDAB
:10454000D843D94310BD203207D40C469440524280
:1045500020321141D040204310BD0800C91720323D
:1045600003D452422032104110BD1800190010BD72
:10457000274500104A00520D144BD21A13DDFF2AB2
:104580001EDAD205CB0FDB071A43C300400F090325
:10459000490A084310435B0001D301D00130704742
:1045A0004308FBD2704702D0C80FC00770470A0308
:1045B00012130132F8D1420F072AF5D1012200E08F
:1045C000FF22C80F00028018C0057047800300005A
:1045D00000210A00002104E000210A00C11704E0C4
:1045E0000022002306E0C0460022CB175840594065
:1045F000C01A994130B5184CA21A002903D1010004
:1046000010D00020203A4C1512D104D2013A0018E3
:1046100049414C0DFAD3114CA24204D2120589181B
:10462000DB07C91830BDD243520D00200021F5E749
:1046300003D4013A00184941FBD50B324405C00AA6
:104640004D052843C90A640003D00024604161413C
:10465000E1E7E0D34408F8E732040000FE07000079
:104660000A0DCC0F531E1B05C91A520503D3C943AB
:10467000404200D30131520D03D0531CDB0A07D056
:10468000121B00206400611C89078912803A120302
:10469000014BD21A70470000FF030000514343430F
:1046A000C9188C46110C83B24B4310B4040C6143FF
:1046B00092B280B2504362431C041B0C001910BC20
:1046C00059411304120CC018514161447047000055
:1046D00007B548404140484001E0C04607B54200A8
:1046E000120E03D0FF2A03D1420218D8C00DC00514
:1046F0004A00120E03D0FF2A03D14A020FD8C90D77
:10470000C9050122414005D4414001D5814207BD80
:10471000884207BD0143491801D0C043001807BDB6
:1047200000B5FFF7DBFF01D0002000BD012000BD78
:1047300000B5FFF7D3FF01D9002000BD012000BD67
:1047400001231B064200D21804D84A00D21801D80F
:104750000020704701207047132310B512481C78C1
:10476000FFF75CF80100012C0AD003DD80220F481E
:1047700000F070F80E48FFF749F80E4B186010BDB6
:104780000A4C5422200000F065F80B4B6365A365CA
:10479000E36523666366A366E36623676367A367CF
:1047A000E3672362E361E5E753460000E826002063
:1047B0004C330000503C0020BD47001007B5604658
:1047C00001880A0A0230DF2AFAD1C9B2820804D36A
:1047D000028840880004104300E00068014A5050FD
:1047E000039007BDE826002010B5040036F0CEF88F
:1047F000002804D0034B04199C4200D810BD024885
:10480000FDF708FC0000042098A6041010B50C0069
:1048100036F0C2FB002804D0034B04199C4200D898
:1048200010BD0248FDF7F6FB0000042098A6041016
:1048300010B536F0B5F810BD01480421014B1847FA
:10484000501100202D380010014B1B681847000044
:1048500050110020014B5B681847000050110020E8
:1048600010B5FFF7C1FF10BD10B5FFF7BDFF10BDBC
:1048700010B5FFF7DDFF10BD10B5FFF7D9FF10BD74
:1048800010B5FFF7D5FF10BDF0B5C64600B5437DA6
:1048900007000D001600002B38D0002A2EDD002165
:1048A0006A1E90466A5C037D4C1C00200A2A0CD0CC
:1048B000A64216D043461B5D21000D3B5A42534190
:1048C0006A5CDBB24C1C0A2AF2D1002BF0D1814287
:1048D00017DC022110483B689847A64207D0200009
:1048E000E8E7864203DD311A3B6828189847AD197E
:1048F000013D2B780D3B5A4253413B7580BCB84675
:10490000F0BD091A3B6828189847E2E703681100D0
:1049100028009847F2E7C04610A70410F0B5CE462D
:10492000474680B583B06B460600DD1D2870FCF756
:1049300001FE00231A4A12184B41802109068B42BE
:1049400002D30122174B524217490800884645F00E
:1049500033FD164B81461C68002C14D0144F02E026
:104960002469002C0FD02368002BF9D03B68002B62
:1049700001D0A342F4D1200001222900FFF784FFD7
:104980002469002CEFD14B46002B05D1300003B039
:10499000C0BCB946B046F0BD404645F0BDFCF5E7A9
:1049A00040420F00FFFFFF7FC4210020A8390020F4
:1049B000B0390020F0B5DE4657464E464546E0B5D4
:1049C00085B007003AF0E2FF0600FCF7B3FD0023D4
:1049D0002B4A12184B41802109068B4202D3012237
:1049E000284B5242284908008B4645F0E5FC274BEE
:1049F00001901C689A46002C3BD0254B984602AB90
:104A0000DD1D0A23994602E02469002C17D0236893
:104A1000002BF9D043461B68002B01D0A342F3D1F1
:104A2000200032003900FFF72FFF4B462000012203
:104A300029002B70FFF728FF2469002CE7D1019B88
:104A4000002B18D153461C68002C06D06368002B3D
:104A50000BD098472469002CF8D1300005B0F0BC89
:104A6000BB46B246A946A046F0BD2469002CEDD154
:104A7000F3E70028F1D0584645F04EFCE2E7C04687
:104A800040420F00FFFFFF7FC4210020A839002013
:104A9000B0390020F8B557464E46DE464546E0B5EB
:104AA0000E00170000282CD11B4B1C4D1A685B68A8
:104AB00093469A461A4B99461A4B98464B461C68A1
:104AC000002C03D115E02469002C12D02B68002B98
:104AD00001D0A342F7D1A368002BF4D039003000F5
:104AE00098470028EFDDF0BCBB46B246A946A04679
:104AF000F8BD43465B6A9A4508D84246926A5A45D1
:104B000002D301204042EEE79A45FAD1012000216C
:104B1000FCF71AFDD2E7C04608A40410B039002003
:104B2000A839002000400540F0B54646D6464F461D
:104B300001380D009046C0B5012841D8FCF7FAFCB9
:104B40000023214A12184B41802109068B422FD2A3
:104B50001E49474608008A4645F02EFC43468146DA
:104B6000013303D128003AF011FF0700184B1C68ED
:104B7000002C14D0174E02E02469002C0FD02368BB
:104B8000002BF9D03368002B01D0A342F4D12000D0
:104B90003A002900FFF778FE2469002CEFD14B463C
:104BA000002B09D14046E0BCBA46B146A846F0BD4C
:104BB0000122094B5242CBE7504645F0ADFBF1E7ED
:104BC00001204042EFE7C04640420F00C4210020D0
:104BD000A8390020B0390020FFFFFF7F01204042AC
:104BE0007047C046012040427047C0460120404205
:104BF0007047C0460300022200209A42404170479D
:104C000070B5A0B06C4605000E0080220021200087
:104C1000FFF71AFE2B6832689B001A516B687268A6
:104C20009B001A51AB68B2689B001A51EB68F2689E
:104C30009B001A512B6932699B001A5100231FAA4D
:104C400011685B005B181100043A8C42F8D1D02443
:104C500001262406226932205A40EB6900211340C4
:104C60003200E3616B699A406261FCF763FB6B6938
:104C70009E40A66120B070BDF0B54F464646D64670
:104C8000C0B5804689468EB0012B63D9013B5C10CC
:104C9000A4016C3AA418E4B20122924623091A40F6
:104CA00053469446099262091A400892A2091A4092
:104CB0000792E2090692002201AE06AD0592290094
:104CC000320089C989C26346310013604046FFF74C
:104CD00097FF5246E30813400193A3081340029341
:104CE0006308134014403100404603930494FFF7D7
:104CF00087FF4B461C78002C26D04F4601260137F3
:104D0000E3092B60A30933406B6063093340AB6058
:104D10002309334029004046EB602E61FFF770FF06
:104D2000E30833402B60A30833406B6063083340D3
:104D30003440AB60EC60290040460137FFF760FF6C
:104D40007B1E1C78002CDBD10EB0E0BCBA46B1460D
:104D5000A846F0BD9B01D218803AD4B29CE7C04669
:104D6000F0B55746DE464E464546E0B50500D5B09F
:104D70000F20FCF7F3FA9B4C04AB2200994643CA80
:104D800043C343CA43C303CA03C3002120221800FC
:104D9000FFF75AFD14AB9B46012623005A460E9698
:104DA000203383CB83C283CB83C203CB03C20021D6
:104DB0001C221CA8FFF748FD24AB9A46230052464C
:104DC000403383CB83C283CB83C203CB03C2230094
:104DD000603313CB13C213CB13C203CB03C2140033
:104DE000002180222000FFF72FFD2F686B68BF0095
:104DF0009B00E6519846E650AB689B00E650039353
:104E0000EB689B00E65001932B699B00E6500293F0
:104E10006B699B00E650002653AB1A687600B61803
:104E20001A00043B9442F8D1802200212000AE6198
:104E3000FFF70AFD01234246E351A350039AA35012
:104E4000019AA350029AA350002253AB1968520052
:104E500052181900043B8C42F8D13000EA61FBF78C
:104E600067FCD023AA691B065A629A6100230026B8
:104E7000002798462361102249462000FFF7EAFCEC
:104E800021002800FFF7BCFE210028003696379746
:104E9000FFF7B6FE00215448FCF74CFA43461022B7
:104EA000236149462000FFF7D5FC21002800FFF7C9
:104EB000A7FE2100280036963797FFF7A1FE642051
:104EC0000021FCF737FA43461022236149462000AF
:104ED000FFF7C0FC21002800FFF792FE2100280008
:104EE00036963797FFF78CFE4346102223610CA9B4
:104EF0002000FFF7AFFC21002800FFF781FE4346AA
:104F000021002800A360FFF77BFE434610222361A7
:104F100059462000FFF79EFC21002800FFF770FE95
:104F200043460136210028003496A360FFF768FE4F
:104F300043461022236151462000FFF78BFC2100DD
:104F40002800FFF75DFE210028006660A660FFF7DD
:104F500057FE4346102223611CA92000FFF77AFC6C
:104F600021002800FFF74CFE21002800E660FFF733
:104F700047FE0520FCF7F2F94346102223612CA9D5
:104F80002000FFF767FC21002800FFF739FE01220F
:104F900001232100280034923593FFF731FE32209F
:104FA000FCF7DCF92800002300221049FFF764FE1B
:104FB0002800012300220E49FFF75EFE280002238D
:104FC00000220C49FFF758FE0323002228000A495B
:104FD000FFF752FE55B0F0BCBB46B246A946A0460C
:104FE000F0BDC0465CA704100410000014A7041014
:104FF00024A7041034A7041044A7041010B504001B
:1050000000206360039BA0612361049BE0616361F6
:10501000059BA0622362069BE06263620298079B85
:105020002060A2602000E1602363FFF799FE20006A
:1050300010BDC04610B500230022FFF71DFE10BDB5
:1050400010B500230D22FFF717FE10BD10B5012388
:105050000022FFF711FE10BD30B5016B04000B7983
:105060008FB0002B19D0274D2B78002B27D106A805
:1050700000F0C0FC0323002220000699FFF7FCFD8E
:105080000022214B06981A7008AB984203D0089969
:105090000131FFF7F5FB0FB030BD1B4D2B78002B16
:1050A000F9D1080000F01AFE03230022200017495E
:1050B000FFF7E2FD01222B7853402B70EBE71C2217
:1050C000002106A8FFF7C0FB0023102206A96846AE
:1050D0000493FFF7BFFB69462000FFF791FD002214
:1050E00001236946200002920393FFF789FD002106
:1050F0000A20FCF71FF901222B78216B53402B70FB
:10510000B5E7C046601100206111002054A70410CB
:1051100070B5040023002033A36120220023E36143
:10512000A35422003832226338226363A35422003E
:105130005032A2640A252600502282B0E364002186
:10514000A354303623602371E36023610022074BB0
:105150000095183020F006FD626B00213000044BF2
:10516000009520F0FFFC200002B070BDDCA7041009
:10517000E8A704100823F0B54E469946DE46574688
:1051800045468144E0B54B460026C3B00360466007
:105190000672050020A8170014F0BAFFA24B10AC4D
:1051A00023640593B023E65000239B46B423E652C4
:1051B0000433E6500433E6500433E6500433E6503B
:1051C0009A4B0C215A6849429446614408689B688E
:1051D000201810928A46036000210392049314F071
:1051E00083FF934B00221093984614332364914B12
:1051F00018A8069363600023A66016921793E660D2
:105200002661666101F078FC8B4B5A460793636018
:10521000102363621CABA362302311A920A8E254BF
:10522000E66214F061FF390020001FF0CBFC5A4603
:105230000CAF06AB0A970B961A76A269002A00D12A
:10524000AAE02369002B02D09A4200D279E0636978
:105250000021D21A00920AA8002220F083FC2868BC
:105260000B9A0A9B814500D1A0E0BB4200D1B0E07F
:105270002B600C9BA9686A60AB60002800D19BE0A2
:105280000A900C9100230B9303700A98B84203D044
:105290000C990131FFF7F4FA6E680A97012E52D982
:1052A0002B6838009B4609960F2E00D988E0320003
:1052B0005946FFF7CFFA0021099B0A9A0B93D15464
:1052C00028680A9B0B9A81455CD0BB4200D18EE0D6
:1052D0002B600C9BA9686A60AB60002858D00A90CC
:1052E0000C9100230B9303700A98B84203D00C99D9
:1052F0000131FFF7C5FA4346109314332364079B2B
:10530000A06A63601CAB984203D0216B0131FFF7A8
:10531000B7FA069B18A8636000F0ACFD039B049AE3
:10532000109353461B6820A8E250059B236414F099
:105330002BFF280043B0F0BCBB46B246A946A046AE
:10534000F0BD1A0083E7002306AA0B93711C1376A5
:105350000AA820F06BFB302300220B9900930AA8C7
:105360002F3B20F091FB0B98344B6A6829681B1A7D
:105370009A4256D80AA820F0C7FC28680A9B0B9AC4
:105380008145A2D1BB4232D02B600C9B6A60AB60DE
:105390000A970CAF3800A4E70AA81AA920F098FAD7
:1053A00028680B9A0A9B814500D05EE7BB4210D06B
:1053B0002B600C9B6A60AB600A970CAF380061E70A
:1053C000002209A90AA820F037FA099B0A900C9339
:1053D0006DE7002A06D0012A17D03900FFF73AFA04
:1053E0000B9A286800236A6083540A984AE7002AC7
:1053F00006D0012A0FD03900FFF72CFA0B9A286843
:1054000000236A6083540A986BE706AB1B7E037027
:105410000B9A2868E6E706AB1B7E03700B9A286898
:10542000EEE7074814F096FD04CC0410F0D4041005
:105430000CD5041064D5041090D40410FFFFFF3F76
:10544000F4A70410F0B5DE4657464E464546904652
:105450000222E0B50E00FA21DD171540DA179B187D
:105460005340C5B00400890018009946FEF700FAC1
:105470003C218246FEF724FA3C210700FEF720FA81
:10548000FA21834689004846FEF7F2F902A80A008D
:105490003100FFF76FFE3C215046FEF711FA08A8D5
:1054A0000A003100FFF766FE38003C21FEF708FADB
:1054B0000EA80A003100FFF75DFE18215846FEF7DE
:1054C000FFF927000A0014A83100FFF753FE00235C
:1054D000424608372B352760636023724C2A2DD053
:1054E000532A00D166E1442A00D1D5E0149816ABC6
:1054F000984203D016990131FFF7C2F90E9810AB0C
:10550000984203D010990131FFF7BAF908980AAB15
:10551000984203D00A990131FFF7B2F9029804AB1F
:10552000984203D004990131FFF7AAF9200045B051
:10553000F0BCBB46B246A946A046F0BD0F9D1CABD1
:1055400099460E9E1A933E950F2D00D9A1E1012D8B
:1055500000D0B4E16A4670213378521813704A467D
:1055600000231B9553551B9BDD4DAB4200D13BE205
:105570000122DC491AA820F0C7FB1B9B099A089955
:10558000ED1AAA4200D92FE21AA820F0BDFB0600AE
:1055900022AB2093036808360500B34200D1E7E14F
:1055A00020938368229300226B682A726A60CC4A37
:1055B00021932E60934200D116E20122CA4920A80D
:1055C00020F0A2FB060028AB26939A460368083613
:1055D0000500B34200D1C4E12693836828930023D9
:1055E00068686B602B72039ABD4B2E6002992790FE
:1055F0001B1A9A4200D9F7E126A820F085FB082261
:10560000804640AE3E960368424493463EAD934288
:1056100000D19FE13E938368AB6043465B685A4686
:105620006B6043461A600023424613722068536041
:105630003E9B874200D164E1B34200D17BE13F99B8
:10564000409AA76823606160A260002800D15FE1F2
:105650003E90AF6000236B6003703E98B04203D071
:10566000A9680131FFF70CF92698504503D0289915
:105670000131FFF705F9209822AB984203D0229917
:105680000131FFF7FDF81A98484500D12EE71C9923
:105690000131FFF7F5F829E72CAA90462EAA2C92A3
:1056A00042460999404601315360137220F0BEF919
:1056B00043460022596840460123009520F0E4F952
:1056C0004346874D5B68099A0899EB1A9A4200D9BC
:1056D0008AE1404620F018FB43465B68AB4200D1AC
:1056E00082E101224046804920F00EFB060034ABE7
:1056F00032939A46036808360500B34200D154E15C
:10570000329383683493002368686B602B72039A2A
:10571000734B2E60029933901B1A9A4200D963E1B1
:1057200032A820F0F1FA0822814640AE3E96036886
:105730004A4493463EAD934200D13DE13E93836897
:10574000AB604B465B685A466B604B461A60002361
:105750004A461372206853603E9B874200D1C5E0E1
:10576000B34200D1D8E03F99409AA76823606160B6
:10577000A260002800D1C0E03E90AF6000236B60C3
:1057800003703E98B04203D0A9680131FFF778F862
:105790003298504503D034990131FFF771F82C98B5
:1057A0002EAB984200D1A1E6434699680131FFF73C
:1057B00067F89BE60F9D3AAB99460E9E38933E954F
:1057C0000F2D57D8012D73D0002D00D0FBE0002203
:1057D00039955A55399B424DAB4200D104E14149BC
:1057E000013238A820F090FA399B099A0899ED1AED
:1057F000AA4200D9F8E038A820F086FA08228046AC
:1058000040AE3E960368424492463EAD934200D17C
:10581000C4E03E938368AB6043465B6852466B606E
:1058200043461A60002342461372206853603E9B31
:1058300087424AD0B34200D1A1E03F99409AA7687D
:1058400023606160A260002846D03E90AF600023D4
:105850006B6003703E98B04203D0A9680131FFF736
:105860000FF83898484500D140E63A990131FFF7E2
:1058700007F83BE600223EA938A81FF0DDFF3E9B5B
:1058800038903A932A003100FEF7E4FF3E9D389BA2
:105890009DE700223EA91AA81FF0CEFF3E9B1A905A
:1058A0001C932A003100FEF7D5FF3E9D1A9A57E659
:1058B0006A46E8213378521813704B4687E71A007E
:1058C000002D00D14CE61800EBE7B34257D03F99CA
:1058D000409A23606160A2603E9640AE3000B6E719
:1058E000FFFFFF3FA8F10410DCFA0410B34213D00D
:1058F0003F99409A23606160A2603E9640AE3000BE
:105900003CE7B34217D03F99409A23606160A260A0
:105910003E9640AE30009DE66A68002A06D0012A15
:105920005DD03100FEF796FF6A6820680023626050
:1059300083543E9822E76A68002A06D0012A49D09B
:105940003100FEF787FF6A68206800236260835495
:105950003E987FE64268594630000132FEF77AFFF2
:105960005BE64268310050460132FEF773FF36E6CF
:1059700042683100013222A8FEF76CFF13E66A6824
:10598000002A06D0012A20D03100FEF763FF6A68A2
:1059900020680023626083543E9858E7426851466D
:1059A00030000132FEF756FF36E7426831005046BC
:1059B0000132FEF74FFFA6E6426859463000013239
:1059C000FEF748FFBDE618005CE72B7A03706A68B3
:1059D0002068DEE72B7A03706A682068B5E72B7AC7
:1059E00003706A682068A1E7014814F0B3FAC04662
:1059F000F4A7041070B50D000400FBF79BFDFA221C
:105A000000239200FDF79AFF2B682900C31A532246
:105A10002000FFF717FD200070BDC046F0B54746D7
:105A2000CE4680B5036904000F008FB0002B00D173
:105A3000CEE0CB1AC1680022002900D05A1A626158
:105A4000A268E3609A4200D8BEE01A002100A2607A
:105A500002A84C22FFF7F6FC01229D4B0092002188
:105A6000002202A820F07EF8082290460AAD089590
:105A7000036880440600434500D1ECE00893836846
:105A80000A9373680993434633600023337273604B
:105A90002300A0692033984200D1C9E0089BAB42A3
:105AA00000D19EE009990A9A266AA361E161226207
:105AB000002800D1C4E008900A96002309930370DF
:105AC0000898A84203D00A990131FEF7D9FE02983E
:105AD00004AB9846984203D004990131FEF7D0FEFA
